:020000040800F2
:1000000040620020DD010008E5010008E70100086A
:10001000E9010008EB010008ED0100080000000004
:100020000000000000000000000000004501000882
:10003000F10100080000000089010008E511010835
:10004000F7010008F7010008F7010008F7010008B0
:10005000F7010008F7010008F7010008F7010008A0
:10006000F7010008F7010008FD240008F701000867
:10007000F7010008F7010008F7010008F701000880
:10008000F7010008F7010008F7010008F701000870
:10009000C9780008F7010008F7010008F701000817
:1000A000F7010008F7010008F7010008F701000850
:1000B000F7010008F7010008F7010008F701000840
:1000C000F7010008F7010008F7010008F701000830
:1000D000F7010008317400085D7500082D760008EE
:1000E000F7010008F7010008F7010008F701000810
:1000F000F7010008F7010008F7010008F701000800
:10010000F7010008F7010008F7010008F7010008EF
:10011000F7010008F7010008F7010008DD6C00088E
:10012000F7010008F7010008F7010008F7010008CF
:10013000DFF80CD000F0FEFD004800474DF5000848
:1001400040620020224B19680868B0E8F00F80F385
:100150000988BFF36F8F4FF0000080F311884EF0D5
:100160000D0E70470000000006480068006880F32C
:10017000088862B661B6BFF34F8FBFF36F8F00DFA1
:1001800000BF00BF08ED00E0EFF30980BFF36F8F01
:100190000F4B1A6820E9F00F106008B54FF0BF0050
:1001A00080F31188BFF34F8FBFF36F8F10F022FEE3
:1001B0004FF0000080F31188BDE808401968086816
:1001C000B0E8F00F80F30988BFF36F8F704700BF6E
:1001D000B8010020EFF30580704700000648804713
:1001E00006480047FEE7FEE7FEE7FEE7FEE7FEE71C
:1001F000FEE7FEE7FEE7FEE79D6A00083101000822
:100200002DE9F05F0546002092469B46884606464B
:10021000814640241BE0284641464746224600F0DE
:100220002EFC53465A46C01A914110D31146184627
:10023000224600F015FC2D1A67EB01084F462246B6
:100240000120002100F00CFC17EB00094E41201E9C
:10025000A4F10104DFDC484631462A464346BDE8A6
:10026000F09F2DE9F0410024061B254671F10006A0
:1002700005DA01240027D0EB070067EB0101161E09
:1002800073F1000605DA0027D2EB0702012567EBC0
:100290000303FFF7B5FF86460E4617469C46AC4261
:1002A00004D00025D0EB050E65EB010624B100203B
:1002B000D2EB000760EB030C704631463A466346CA
:1002C000BDE8F081202A06DBCB17203A41FA02F084
:1002D00043EAE07306E041FA02F3D040C2F12002A3
:1002E00091400843194670470649074A0868504339
:1002F00043F2390210440860400870470149086021
:1003000070470000C00300206D4EC64110B5431A6F
:10031000934209D28318881803E010F8011D03F8EE
:10032000011D521EF9D210BD40EA01039B0703D004
:1003300009E008C9121F08C0042AFAD203E011F824
:10034000013B00F8013B521EF9D210BDD2B201E0D0
:1003500000F8012B491EFBD270470022F6E710B5CA
:1003600013460A4604461946FFF7F0FF204610BD23
:1003700030B504460020034600E05B1C934203D2E4
:10038000E05CCD5C401BF8D030BDF0B480EA0102E7
:10039000D40F4200B2EB410F02D20246084611468A
:1003A0004A0042D0C30DDDB2C1F3C752AD1A202DB1
:1003B00035DAC1F3160141F4000204B15242C5F12D
:1003C000200602FA06F12A411044B3EBD05F23D095
:1003D000C4B1012DA0EBC35009DCF0BC4FF00042CA
:1003E00002EAC352DBB200F5000000F061BB40003E
:1003F00000F1807000EBC350A0F1807040EAD17032
:10040000490009E0490841EAC071A0EBC35000F57A
:100410000000400800EBC350F0BC00F040BB61425C
:10042000012202EB4101001BF6E7F0BC704781F0AE
:100430000041AAE780F00040A7E780EA010210B57A
:1004400002F00043400022D04A001FD0010E01EB11
:100450001261C0F35600C2F3560240F4000042F4A9
:100460000002A0FB022000047F39140400D0401CCD
:1004700050EA124001D44000491EC2B20C0604EBFF
:10048000D010401C4008802A02D003E0002010BD9C
:1004900020F00100002900DA0020184310BD30B41C
:1004A00080EA010202F0004530F0004221F00040F5
:1004B00013D090B1C30DD40DC2F31601C0F31600D2
:1004C000E41A41F4000140F400027D34914201D36A
:1004D000641C00E04900002C02DA30BC00207047A8
:1004E0004FF400000023914201D3891A03434008CE
:1004F0004FEA4101F7D151B1914202D14FF0004191
:1005000005E002D24FF0010101E06FF0010103EBC1
:10051000C450284430BC00F0C2BA420005D0C0F339
:10052000C7525242914201DC0020704700EBC1509B
:1005300070472DE9FE4F804681EA0300C00F0C464C
:10054000009021F0004123F00045B8EB0200A941E2
:1005500005D24046214690461C460B46024623F0F3
:100560000040104347D0270DC7F30A00C3F30A51D8
:100570000290401A019040286BDAC3F3130040F454
:10058000801B0098924620B10023D2EB030A63EB54
:100590000B0B01985946C0F14002504600F060FA3A
:1005A00006460D4650465946019AFFF78BFE10EB62
:1005B00008006141002487EA115284EAE7731A4374
:1005C00040D0009A62B3019A012A4FEA075215DC23
:1005D000001B61EB02014FF0004202EA0752CDE935
:1005E0000042001C41F5801132462B4600F0EAFA29
:1005F00003B0BDE8F08F40462146F9E7001B61EBF0
:100600000201001C41F5801300185B412018A2F57F
:10061000001747EB030140EAD570B6196D4111E0B0
:100620006D084FEA360645EAC0754FEA0752001BCF
:1006300061EB0201001C41F5801149084FEA3000CE
:100640000019514132462B4603B0BDE8F04F00F08F
:10065000AABA0098012240000023D0EB020263EB0B
:10066000E073009821464FEAE074B8EB000061EBBC
:100670000401E9E783F000435BE781F0004158E7BC
:100680002DE9FE4F81EA030404F0004421F000410B
:1006900000944FF0000B23F0004350EA01045ED0B9
:1006A00052EA03045BD0C3F30A54C1F30A552C4445
:1006B000A4F2F3340194A0FB0254C1F3130141F4FA
:1006C0008011C3F3130343F4801301FB024400FBC6
:1006D000034E840A970A44EA815447EA8357A4FBED
:1006E000076802958D0A05FB07854FEA932C04FBEA
:1006F0000C542705029D4FEA065847EA1637B5EB1A
:1007000008056EEB070C870E920E47EA811742EA46
:100710008312A7FB0201B6EB0B0164EB00042B0D67
:1007200043EA0C335E1844EB1C50DA465146E7FBB3
:100730000201C5F313044FEA0B3343EA14534FEAA3
:100740000432019C43EA0603A4F10C040294009CC9
:10075000CDE900B400F036FA03B0BDE8F08F002018
:100760000146F9E72DE9F04D81EA030404F0004B5E
:1007700021F0004514464FF0000A23F0004150EAF2
:10078000050220D054EA01021DD0C5F30A570246E3
:10079000C5F31303C1F31300C1F30A5640F48015E7
:1007A00043F48013A7EB0608101BD64608F2FD3869
:1007B00073EB050002D308F1010801E092185B41D8
:1007C000B8F1000F03DA00200146BDE8F08D0020EB
:1007D0004FF48011064684460EE0171B73EB0507A5
:1007E00005D3121B63EB050306434CEA010C4908D1
:1007F0004FEA300092185B4150EA0107EDD152EA0E
:10080000030012D082EA040083EA0501084305D000
:10081000101BAB4106D20122002306E000224FF05C
:10082000004302E06FF0010253101AEB06004CEB9C
:10083000085110EB0A0041EB0B01BDE8F04D00F050
:10084000B2B970B521F0004303430CD0C1F30A558F
:100850000024D5EB040564EB0403D617AD1AB341AD
:1008600002DB0020014670BD201841EB025170BD33
:10087000C10F80EAE0700844CA079623002100F007
:1008800017B996230022114600F012B90EB5C10F18
:1008900080EAE0700844CA07002140F233438DE843
:1008A0000E000A460B4600F08DF903B000BD0EB5F0
:1008B00040F2334102910021CDE900110A460B4676
:1008C00000F080F903B000BD00F0004220F00040CD
:1008D000C10DC0F3160040F400007F2901DA0020AA
:1008E0007047962903DCC1F19601C84001E09639B2
:1008F0008840002AF4D04042704720F00040C10DEB
:10090000C0F3160040F400007F2901DA0020704790
:10091000962903DCC1F19601C8407047963988409A
:10092000704770B5C1F30A5201F000450024C1F3CD
:10093000130140F2FF3341F480119A4201DA0020A2
:1009400070BD40F233439A42A2F2334203DC52427A
:1009500000F095F800E090402C43F1D0404270BD8B
:1009600000F0004230F000400AD0C10D01F5607186
:10097000C0F3160042EA0151C20840071143704714
:10098000002001467047000030B5041E71F10004DC
:1009900004DB4FF00044404264EB0101141E73F18C
:1009A000000405DB1C464FF00043524263EB040396
:1009B0008B4208BF824230BD30B5041E71F1000485
:1009C00004DB4FF00044404264EB0101141E73F15C
:1009D000000405DB1C464FF00043524263EB040366
:1009E000994208BF904230BD01F0004330B421F07D
:1009F000004150EA010206D00A0DA2F56072C1F36F
:100A00001301002A02DC30BC00207047440F44EA86
:100A1000C104C100E01830BC00EBC25000F03FB888
:100A2000002801DBC0F10040002901DBC1F10041D9
:100A30008842704730B50B46014600202022012431
:100A400009E021FA02F59D4205D303FA02F5491B9C
:100A500004FA02F52844151EA2F10102F1DC30BDB2
:100A6000202A04DB203A00FA02F10020704791406E
:100A7000C2F1200320FA03F3194390407047202A63
:100A800004DB203A21FA02F00021704721FA02F338
:100A9000D040C2F120029140084319467047002916
:100AA000A8BF7047401C490008BF20F001007047F4
:100AB00010B4B0FA80FC00FA0CF050EA010404BF54
:100AC00010BC704749B1CCF1200421FA04F411FAAA
:100AD0000CF118BF012121430843A3EB0C01CB1DEE
:100AE0004FEA00614FEA102042BF002010BC70475F
:100AF00000EBC35010440029A4BF10BC7047401C39
:100B0000490008BF20F0010010BC7047F0B4002875
:100B100002DCF0BC00207047C0F3C751C0F31600E0
:100B200040F40000CA0701D14000491E3F2202EBF9
:100B30006105002211464FF4000626FA01F3134422
:100B4000D418844201D8001B1A464000491C1729BA
:100B5000F3DD5100814202D24FF0FF3100E000216D
:100B600002EBC550F0BCFFF79ABF10B541000CD0A6
:100B7000C0F3C751962908DC7E2909DC06DB410257
:100B800004D000F0004040F07E5010BD002010BDA9
:100B9000C1F19604C4F1200100FA01F1E040FFF731
:100BA0007EFFA04010BD10B5141E73F1000408DADA
:100BB000401C41F1000192185B411A4301D120F021
:100BC000010010BD2DE9F04D92469B4611B1B1FADE
:100BD00081F202E0B0FA80F220329046FFF740FF47
:100BE00004460F4640EA0A0041EA0B0153465A46C2
:100BF000084313D0114653EA010019D0C8F140024E
:100C00005046FFF73CFF05460E46504659464246C1
:100C1000FFF726FF084305D0012004E020463946AF
:100C2000BDE8F08D0020054346EAE0762C433743CB
:100C30000A986305E40AA0EB08000022FD0A44EAD2
:100C400047540A3002D500200146E9E70105101992
:100C50006941DDE9084500196941BDE8F04DA2E7A9
:100C60002DE9F04D00231A461B1A8A4103DB0020B0
:100C70000146BDE8F08DC1F30A52C1F3130141F4FE
:100C800080154FF0000BD10702D100186D41521EA4
:100C90000027044640F2FF11384601EB620A3E4647
:100CA0008046024600204FF48011FFF7E8FEC2198B
:100CB0007141BB1846EB0100B4EB030C75EB000C63
:100CC00004D3E41A65EB000517460E46241908F113
:100CD00001006D4180463428E3DDF91946EB06003A
:100CE000091BA84103D24FF0FF32134601E0002256
:100CF00013461BEB070046EB0A51BDE8F04DFFF72A
:100D000052BFC1F30A52C1F3130140F2FF3341F461
:100D100080119A4202DA00200146704740F23343C4
:100D20009A42A2F2334202DC5242FFF7A8BEFFF71A
:100D300097BE0000064C074D06E0E06840F0010356
:100D400094E8070098471034AC42F6D3FFF7F4F963
:100D5000AC590108CC59010870B58C1810F8015B2A
:100D600015F0070301D110F8013B2A1106D110F844
:100D7000012B03E010F8016B01F8016B5B1EF9D148
:100D80002B0705D40023521E0DD401F8013BFAE7CE
:100D900010F8013BCB1A921C03E013F8015B01F839
:100DA000015B521EF9D5A142D8D3002070BD0029A5
:100DB00004D0816841F0010181607047816821F0B1
:100DC000010181607047000010B5154988420AD1C1
:100DD00044150121204605F001F82046BDE81040E9
:100DE000002104F0FBBF0F4988420AD104150121FC
:100DF000204604F0F3FF2046BDE81040002104F037
:100E0000EDBF094988420AD10121CC03204604F0F4
:100E1000E5FF2046BDE81040002104F0DFBF10BD13
:100E20000024014000280140003C01400146002010
:100E30008968490700D501207047C06C80B27047AF
:100E40000246002012680A4200D001207047014685
:100E500000208968090700D50120704710B5426855
:100E60000E4B1A400C790B6842EA0422134343608C
:100E700082680B4B1A40D1E9024323434C7942EA82
:100E8000440213438360C26A22F47002097C491E43
:100E9000C9B242EA0151C16210BD0000FFFEF0FF7D
:100EA000FDF7F1FF70B5072609290AD9C568A1F138
:100EB0000A0404EB4404A640B543A3401D43C560A7
:100EC00007E0056901EB4104A640B543A3401D437B
:100ED00005611F23072A09D2446B521E02EB8202CE
:100EE00093409C4391400C43446370BD0D2A09D24A
:100EF000046BD21F02EB820293409C4391400C434F
:100F0000046370BDC46A0D3A02EB820293409C43B5
:100F100091400C43C46270BD816841F0080181605A
:100F20007047002904D0816841F4A00181607047B6
:100F3000816821F4A00181607047816841F004015B
:100F4000816070472DE9F05F044608469046584E90
:100F5000F4606FF02C05FF2805D02D222946404271
:100F600003F0DEFB306130690746FFF781FC514931
:100F70000968FFF762FAB061002C66D0002F71D0CB
:100F800038B200F069F9B069FFF7EAFC0FF0E0FD54
:100F9000DFF824814FF080473A464346FFF770FB65
:100FA0004FF0FF394A46FFF74CFCDFF810A1002252
:100FB0005346FFF7D7FBDFF808B100225B46FFF787
:100FC000B8FA04460D46F068FFF760FC22462B464F
:100FD000FFF756FBFFF7A5FC7060B069FFF7C0FC98
:100FE0000FF0B6FD3A464346FFF74AFB4A46FFF785
:100FF00028FC00225346FFF7B5FB00225B46FFF7B3
:101000003CFB04460D46F068FFF740FC22462B46A9
:10101000FFF736FBFFF785FCB0604FF4FA646542DA
:1010200022462946706803F07BFB70602246294601
:10103000B06803F075FBB06003B2B088BDE8F05F44
:10104000002201B2104603F0DBBF012004F018F8C3
:10105000308A00B200F000F900207061B061BDE894
:10106000F09FFFE7C8F10000FFF702FC1549FFF70A
:1010700016FA04467061F068FFF7FAFB074612495A
:101080002046FFF7DAF93946FFF709FA09F02AFB9B
:10109000B0610E490968FFF7D0F9FFF715FC2D2262
:1010A000294603F03DFB306100B200F0D5F86AE755
:1010B000C40000206814010833E36740D76B6D401B
:1010C0000000F03F00007A44B85E6B4364140108EE
:1010D0000148008870470000C40000200248008AD0
:1010E000404200B270470000C40000201CB5002040
:1010F000009001900021FF208DF80000FB208DF86A
:10110000010005208DF8020030208DF80300012039
:101110008DF80400094800788DF8050002206A4621
:10112000135C1944C9B2401CC0B20628F8D38DF82C
:1011300006100721684606F0E9F91CBDC40000202E
:1011400070B50D46B4280CD8064C2080C1B20020E2
:1011500004F0B4FD002D04D02088BDE8704001F0FB
:1011600041BF70BDC40000202DE9F0410E469046FD
:10117000384D00276F8034B2082865D2DFE800F0D0
:1011800004131F2E3945505CB8F1000F02D0002027
:1011900000F062F80EB1012000E0002003F070FFC3
:1011A000EF60BDE8F0816C80404603F047FF4346A6
:1011B0002046BDE8F0410022FF21FFF7C3BE704288
:1011C00000B204466880404603F038FF434620469C
:1011D000BDE8F0410022FF21FFF7B4BE002003F07C
:1011E0002DFF43462046BDE8F04100221921FFF7BC
:1011F000A9BE002003F022FF43462046BDE8F0418F
:1012000000226FF01801FFF79DBE002003F016FFCB
:1012100043462046BDE8F04100222D21FFF792BE53
:10122000002003F00BFF43462046BDE8F0410022BA
:101230006FF02C01FFF786BE002000F00DF80120B2
:1012400003F01EFFEF60ACE7BDE8F041002003F0C3
:10125000F5BE0000C400002010B52D22514203F05D
:101260005FFA06490861FFF733FF097CBDE81040CB
:101270000844C1B2002004F021BD0000C4000020D9
:101280002DE9F05FFFF7E8FF344E3069FFF7F0FA21
:1012900033490968FFF7D1F8B061FFF761FB0FF040
:1012A00057FCDFF8C0804FF080473A464346FFF7CF
:1012B000E7F94FF0FF394A46FFF7C3FADFF8A8A075
:1012C00000225346FFF74EFADFF8A0B000225B463B
:1012D000FFF72FF904460D46F068FFF7D7FA2246CC
:1012E0002B46FFF7CDF9FFF71CFB7060B069FFF7E5
:1012F00037FB0FF02DFC3A464346FFF7C1F94A464B
:10130000FFF79FFA00225346FFF72CFA00225B46B4
:10131000FFF7B3F904460D46F068FFF7B7FA224627
:101320002B46FFF7ADF9FFF7FCFAB0604FF4FA6413
:10133000654222462946706803F0F2F97060224641
:101340002946B06803F0ECF9B06003B2B088BDE89C
:10135000F05F002201B2104603F052BEC40000202C
:101360006814010833E36740D76B6D400000F03F1D
:1013700070B54FF47A740C4D0146072301222846BC
:10138000FFF790FD01212846FFF7CBFD02212846FB
:10139000FFF756FD10B9641EA4B2F7D22846BDE887
:1013A0007040FFF74ABD0000002401402DE9F041E4
:1013B00007460E460025002406E03846FFF7D8FF12
:1013C000284485B2641CE4B2B442F6D3042E03D0A0
:1013D000B5FBF6F0BDE8F081A808FBE710B500F01A
:1013E00007F8BDE810400149FFF727B8C3F5804072
:1013F00010B504210E20FFF7D9FFFFF742FABDE830
:1014000010400149FFF719B83333533A30B587B06C
:1014100001214FF4047004F0D3FC4FF4004004F0B9
:101420009BFC1020ADF8040000248DF8074001A9B2
:10143000164802F08BF8164D2846FFF7C5FC0294BB
:101440008DF80C408DF80D404FF460210491059407
:1014500001218DF8181002A92846FFF7FFFC012191
:101460002846FFF7A4FC2846FFF756FD2846FFF75D
:10147000EEFC0028FAD12846FFF75FFD2846FFF76B
:10148000D5FC0028FAD107B030BD000000100140A3
:101490000024014070B500F0AFFA0A4C0A4D50B17B
:1014A00000F0AAFA012805D102F05AFF2168FEF7E0
:1014B000C4FFA86070BD02F0F9F82168FEF7BDFF17
:1014C000A86070BD641401080C0000200FF048BC37
:1014D00001484078704700000C00002010B504F06F
:1014E0001BFA08F051FC01F06FFB00F085FA58B9C7
:1014F00002F0D4F9014639B107A007F005FA04F06B
:101500000BF800F0ABFBFEE7012000F043FE0749BB
:101510000120487010BD000049434D5F494E4954B9
:10152000204552524F523A25640A00000C00002018
:1015300010B500F047FABDE8104008F0D7BB00F046
:10154000E1BB000001490870704700000C0000205A
:101550007CB500240A20CDE900044FF40075234631
:101560002A462BA12D480FF053FE2DA007F0CCF9F1
:101570000920CDE90004002380222EA131480FF07C
:1015800047FE31A007F0C0F90820CDE90004002390
:10159000802233A135480FF03BFE35A007F0B4F9A7
:1015A0000720CDE9000400232A4636A138480FF071
:1015B0002FFE38A007F0A8F90420CDE9000400238D
:1015C00080223BA13E480FF023FE3EA007F09CF98D
:1015D0000320CDE9000400236A0040A142480FF037
:1015E00017FE42A007F090F90120CDE90004002386
:1015F0002A4643A145480FF00BFE45A007F084F9A9
:1016000048A007F081F9BDE87C400FF0C3BB0000A3
:101610005461736B20537065656400007D1101088F
:10162000737461727420765461736B5F5370656577
:10163000640A00005461736B20436F6E74726F6CA8
:1016400000000000050F0108737461727420765465
:1016500061736B5F436F6E74726F6C0A0000000001
:101660005461736B204B455900000000B90F01080D
:10167000737461727420765461736B5F4B65790A81
:10168000000000005461736B205265706F7274002B
:10169000710E0108737461727420765461736B5F0C
:1016A0004175746F5F5265706F72740A00000000BC
:1016B0005461736B204170705F48616E646C6500AB
:1016C0003D0E0108737461727420765461736B5F10
:1016D0004170705F48616E646C650A005461736BA1
:1016E000204D505500000000710F010873746172A5
:1016F0007420765461736B5F494D550A00000000F9
:101700005461736B204F4C45440000004D1001089C
:10171000737461727420765461736B5F4F4C4544EF
:101720000A000000737461727420765461736B5305
:10173000746172745363686564756C65720A000045
:1017400010B5642000F000F9002000F023FD012016
:1017500003F096FC64224FF4FA61FE2006F0E4F8F0
:10176000BDE8104003F066BF70B5044603F0E6F92B
:1017700000261B4D06280AD000F03DF8A0421EDAD4
:10178000E868401CE860142828DD022070BD00F0E5
:1017900032F8A04206DAE868401CE86014281DDD33
:1017A000022070BD00F01EF8A04206DDE868401C73
:1017B000E860142812DD002070BDEE600EE000F03D
:1017C00011F8A04209DD413C152C07D3E868401C04
:1017D000E860142802DD002070BDEE60012070BDBD
:1017E0004000002010B503F0A9F9062801D06020C0
:1017F00010BD412010BD10B503F0A0F9062801D09E
:10180000822010BD552010BD70B50646214CA08821
:10181000401C80B2A0800A2808D300F04FF80025B1
:10182000A58028B1022813D000F0F2F9207870BD0D
:10183000304600F081F9A07830B1A57001231A4636
:10184000022115A003F09DFD012003F019FCEDE736
:10185000304600F0A3F9A078C0B1A5700021084679
:1018600008F0EAFA0023FF211A46084604F078FB44
:1018700004F0D6FB0023012202210AA003F081FD1F
:1018800001230022032109A003F07BFD012003F0C6
:10189000F7FBCBE740000020426174746572792049
:1018A0004C6F770042617474657279004F7665728F
:1018B00020566F6C746167650000000010B50A4C1B
:1018C000607801280ED1FFF789FD0849FEF7B5FDC4
:1018D000FEF7FAFFA060FFF747FF6070012801D014
:1018E00000202070607810BD4000002000002041E2
:1018F00001488068704700004000002038B5012191
:10190000102004F05DFA2020ADF8000010208DF8C2
:10191000030003208DF80200044C6946204601F0C4
:1019200015FE2021204601F09CFE38BD001001402C
:1019300001480078704700003201002001484088CB
:10194000704700003201002070B50446164D012C8E
:1019500010D0DCB10A2C25D3022000F027F80A2091
:10196000B4FBF0F000F028F82846BDE870402021D4
:1019700001F077BE012000F019F8002000F01CF8FB
:101980002846BDE87040202101F06BBE002000F029
:101990000DF8002000F010F82846BDE87040202126
:1019A00001F05DBE70BD00000010014001490870EB
:1019B0007047000032010020014948807047000054
:1019C0003201002010B5FFF7B3FF022806D1FFF760
:1019D000B5FF20B106484188491E418010BD202135
:1019E000044801F03CFEBDE810400020FFF7DEBFD8
:1019F000320100200010014001488078704700004B
:101A0000280100200148407870470000280100208C
:101A100010B509F01FF84FF4A06003F0A5FC4FF4D7
:101A2000612005F019FD01230522032120A006F005
:101A30006BFF27A229A12CA006F066FF324805F013
:101A40009FFD4FF4E13005F005FE012000F060F845
:101A500002F096F902F0B0F9FFF750FF02F07EF9BC
:101A6000FFF7D4FC322009F003F82021274801F0C9
:101A7000F6FD02F071F80AF0F3FA04F0ABFD03F0A2
:101A800061FE00F06FF904F063FA02F0B1F9002191
:101A90004FF4616003F036FB00F09AFD642000F023
:101AA00095F905F02FF9BDE8104004F0A3B8000047
:101AB0000A4669726D776172652056657273696F47
:101AC0006E3A205625642E25642E25640A000000F7
:101AD00031373A32323A3030000000004A756E2019
:101AE00032332032303235004669726D776172656B
:101AF00020436F6D70696C65643A2025732C202536
:101B0000730D0A0A00000000A086010000100140C9
:101B100041060748826942F0010282610548426835
:101B200022F0E062426042680A434260704700006F
:101B300000100240000001402DE9F041144C4FF428
:101B4000005677102279DFF84C80134D002A10D010
:101B500018B12021284601F084FD3146284601F0C5
:101B600080FD3946404601F07CFD00202071BDE833
:101B7000F0812021284601F072FD3146284601F00F
:101B80006EFD3946404601F06AFD01202071EEE706
:101B90002801002000080140001001402DE9F04715
:101BA000184C6179491CC9B26171052917D9A1790D
:101BB000DFF85490154E4FF400574FF4805800252D
:101BC00079B12021304601F04AFD3946304601F016
:101BD00046FD4146484601F042FDA5716571BDE8EC
:101BE000F08718B12021304601F03BFD39463046E0
:101BF00001F037FD4146484601F033FD0120A07158
:101C0000ECE700002801002000080140001001401E
:101C10001049C878401CC0B2C8701E2801D30020EB
:101C2000C870CA780C48531E4FF40051032B01D2E0
:101C300001F017BD131F032B01D201F010BDD31FFC
:101C4000032B01D201F00DBD0A3A032A01D201F0A3
:101C500006BD7047280100200010014010B5074C58
:101C60002021204601F0FDFC4FF47A7008F000FFBF
:101C70002046BDE81040202101F0F1BC00100140D9
:101C800010B502F08FFB02F021FA0A2008F0F0FEF6
:101C9000002480226B21682002F01EFD642008F0E1
:101CA000E7FE00226B21682002F016FD75216820F6
:101CB00002F07CFC712807D00A2008F0D9FE641CD1
:101CC000032CE6DB002010BD012010BD07A006F0AC
:101CD0001BFE012080F3138808480168084A01F4BC
:101CE000E06111430160BFF34F8FFEE70D0A5265BB
:101CF000736574204D43550D0A0000000CED00E0A3
:101D00000400FA051CB50020009001900021FF207E
:101D10008DF80000FB208DF8010005208DF80200F1
:101D200051228DF8032003228DF804208DF8050040
:101D300002206A46135C1944C9B2401CC0B206288E
:101D4000F8D38DF806100721684605F0DFFB1CBDAF
:101D50000349C0B24870022801D90020487070477A
:101D60002801002010B5FFF78BFF0F49887001464E
:101D70000EA006F0C9FDFFF73FFE01280AD102F0D0
:101D800067F838B10DA006F0BFFD03F0C5FBFFF703
:101D900065FFFEE7FFF730FE002803D1BDE81040E5
:101DA00004F03CBB10BD000028010020494D552027
:101DB000547970653A25640A000000004D50555F63
:101DC000494E4954204552524F520A003EB50546ED
:101DD00000F0C8F8124C204600F024F8684600F0E5
:101DE0005FFA00208DF806008DF8070002908DF84C
:101DF00002008DF8030005208DF8040001208DF805
:101E00000500284600F0DEF8ADF8000069462046DF
:101E100000F0F4F800F08CF800F080F93EBD00000E
:101E20000064004010B50C4988420AD101214C06DB
:101E3000204603F0B7FF2046BDE81040002103F024
:101E4000B1BF01218C06204603F0ACFF2046BDE85F
:101E50001040002103F0A6BF00640040F0B5827A74
:101E600001219140304C226842F0010222602E4D47
:101E70001C352A688A432A602B4A067B0C322B4B7E
:101E8000002E14D116688E4316604688C78846EA2D
:101E90000746877A03EBC707C7F840660688878836
:101EA00046EA0746877A03EBC707C7F84466067B0E
:101EB000012E14D116680E4316604288068842EA45
:101EC0000642867A03EBC606C6F84026C288868894
:101ED00042EA0642867A03EBC603C3F84426124A56
:101EE000C37A121D3BB113680B4313600E4A03897A
:101EF000143223B106E013688B431360F6E71368CE
:101F00008B4313600389012B02D113680B431360C9
:101F1000407B012802D1286808432860206820F00F
:101F200001002060F0BD000000660040006000403D
:101F30001FB500208DF80A008DF80B0001218DF8E7
:101F40000C10ADF80000ADF80200ADF80400ADF8DB
:101F50000600ADF808008DF80D106846FFF77EFF0B
:101F60001FBD000038B50121480603F00DFF012117
:101F7000084603F025FF0121082003F021FF01217D
:101F80004FF4EA1001F036FB4FF48070ADF800001A
:101F900048208DF8030003248DF80240084D69465F
:101FA000284601F0D3FA6915ADF8001018218DF814
:101FB00003108DF802406946284601F0C7FA38BD83
:101FC000000C014001460420502900D1052032298F
:101FD00000D10820192900D110200A2900D1282079
:101FE000052900D150207047002A03D042690A43D6
:101FF0004261704742698A434261704710B50022CE
:10200000036823F002030360036843F001030360E5
:102010004FF6FF7300E0521C4468E40701D19A4276
:10202000F9D14268D2073ED08A79012A3DD00268B0
:1020300022F080020260CA79012A3BD0026822F0B5
:10204000400202600A7A012A39D0026822F0200296
:1020500002604A7A012A37D0026822F01002026038
:102060008A7A012A35D0026822F008020260CA7A10
:10207000012A33D0026822F0040202608A78CC7808
:10208000920742EA04620C7942EA04424C790988D8
:1020900042EA0452491E0A43C261016821F001016B
:1020A0000160002120E0002010BD026842F08002A3
:1020B0000260C0E7026842F040020260C2E70268C4
:1020C00042F020020260C4E7026842F0100202609F
:1020D000C6E7026842F008020260C8E7026842F000
:1020E00004020260CAE7491C4268D20701D0994243
:1020F000F9D14068C00701D0002010BD012010BDFB
:1021000002460020002905D0012902D1106900F003
:1021100003007047D06800F00300704708B5012243
:1021200002210948FFF760FF14208DF8000002200B
:102130008DF8010001208DF802008DF8030068463B
:1021400003F0E0F808BD0000006400401CB5017811
:10215000C4790022FC291CD10121435C1A44D2B26B
:10216000491C0729F9DBA24213D1427881788DF806
:102170000010C1788DF8011001798DF802104179B5
:102180008DF8031080798DF804006946104605F03B
:1021900015FF1CBD0449002802D0012008707047BB
:1021A00000200870704700006A01002010B500EBA5
:1021B0000113D3F8B04104F004041472002C2CD0A5
:1021C000D3F8B041E408546003F5D8731C6804F0F8
:1021D000020454725C6804F00F0494725C68240A70
:1021E000D4749C68D4729C68240A14739C68240C70
:1021F00054739C68240E9473DC68D473DC68240ADE
:102200001474DC68240C5474DB681B0E937449B19D
:10221000016941F02001016110BDD3F8B041640DA6
:102220001460D1E7C16841F02001C16010BD000019
:1022300070B586B00446184E00213046FFF760FFA7
:1022400001004FF0000021D001908DF80C00082112
:102250008DF80E10002101AD6A18D072491C0829B2
:10226000FADB01AA00213046FFF7A0FF0021681821
:10227000C07A6054491C0829F9DB08480078002816
:1022800002D03220FFF760FB06B070BD0021605421
:10229000491C0829FBDBF7E7006400406A010020C5
:1022A00000218171C171017241728172C1728170AC
:1022B000C170032101710221417101210180704728
:1022C00010B50020064C0021064BE27902E01954BB
:1022D000401CC0B29042FAD3E171A17110BD000060
:1022E00000000020CC030020C10002D50249086094
:1022F00070470249486070470404024000000240F1
:10230000002904D0016841F00101016070470168B3
:102310004FF6FE72114001607047000001684FF6F1
:10232000FE72114001600021016041608160C16066
:102330003649364A0839904204D1486840F00F00C7
:1023400048607047314A1432904204D1486840F0E6
:10235000F000486070472D4A2832904204D1486806
:1023600040F4706048607047284A3C32904204D183
:10237000486840F4704048607047244A50329042A8
:1023800004D1486840F47020486070471F4A6432A6
:10239000904204D1486840F47000486070471B4A7E
:1023A0007832904204D1486840F0706048607047CD
:1023B000174A111F904204D1086840F00F000860CE
:1023C0007047134A1432904204D1086840F0F0007C
:1023D000086070470E4A2832904204D1086840F4E1
:1023E0007060086070470A4A3C32904204D1086825
:1023F00040F4704008607047054A50329042FAD16C
:10240000086840F47020086070470000080002402F
:1024100008040240406880B2704700000246002075
:10242000D10002D50449096801E004490968114254
:1024300000D001207047000000040240000002406C
:1024400030B5026847F6F0739A430C6A8B682343F1
:10245000D1E904452C4323438C692343CC692343AE
:102460004C6A23438C6A234313430360CA68426067
:102470000A6882604968C16030BD4160704701B53B
:1024800008E00020401CC0B20A28FBD39DF80000E1
:10249000401E00909DF800000028F2D108BD01B553
:1024A00008E00020401CC0B20A28FBD39DF80000C1
:1024B000401E00909DF800000028F2D108BD0000E9
:1024C00030B403460020A3F57F44FF3C11D040F216
:1024D000654043434FF47A704843B3FBF0F0064B3A
:1024E000414323F81210401E01B230BC104608F0E0
:1024F000FDBE30BC70470000DC58002010B5102035
:1025000000F010F8012806D109F074FDBDE8104074
:10251000102000F001B810BD0149086070470000AC
:102520001404014001460020054A12680A40044B89
:1025300014331B680B4202D0002A00D001207047E0
:102540000004014030B51B4A83790168002B2AD072
:1025500013688B431360111D0B680468A3430B6061
:10256000017911440B68046823430B60114C083453
:102570002168036899432160231D19680568A943F0
:1025800019604179102905D011440A680068024396
:102590000A6030BD21680268114321601968006833
:1025A0000143196030BD0079104402688A4302601B
:1025B00030BD00000004014004490A6802604A6816
:1025C00042608A688260C968C16070473C0100202F
:1025D00010B500F009F800F0D5F800F035F9BDE8C5
:1025E000104000F06DB8000010B588B00120FFF772
:1025F0008FFA0121084603F0E3FB01212D4800F08A
:10260000F9FF0121084603F0BFFB0121042003F07C
:10261000D7FB4FF40040ADF8040004248DF80740C8
:1026200001A9254800F092FF0121082003F0C8FB12
:102630000820ADF804008DF8074001A91F4800F0FC
:1026400085FF05A804F0BCFE0020ADF814004FF68D
:10265000FF71ADF81810ADF81A00ADF81600240798
:1026600005A9204604F05EFE00231A4603212046F9
:1026700004F09EFC02A804F007FD0A21ADF810103A
:1026800002A9204604F0BAFC0121204604F068FBB0
:1026900001221146204604F0FFFC0021204604F0F0
:1026A00016FE47F6FF71A1840121204604F05EFB6F
:1026B00008B010BD0001180000080140000C0140E6
:1026C00030B587B00121022003F05EFB0121042018
:1026D00003F076FB8020ADF8000004248DF8034061
:1026E000264D6946284600F031FF0121042003F001
:1026F00067FB4021ADF800108DF80340694628467D
:1027000000F024FF04A804F05BFE0020ADF81000E8
:102710004FF6FF71ADF81410ADF81600ADF81200C9
:10272000174C04A9204604F0FDFD00231A4603219E
:10273000204604F03DFC01A804F0A6FC0A21ADF8F7
:102740000C1001A9204604F059FC0121204604F098
:1027500007FB01221146204604F09EFC0021204682
:1027600004F0B5FD064A47F6FF71243211800121BD
:10277000204604F0FBFA07B030BD0000000801401D
:102780000004004030B587B00121042003F0FCFABA
:102790000121082003F014FB8020ADF80000042480
:1027A0008DF80340264D6946284600F0CFFE0121F2
:1027B000082003F005FB4021ADF800108DF8034020
:1027C0006946284600F0C2FE04A804F0F9FD002086
:1027D000ADF810004FF6FF71ADF81410ADF816000B
:1027E000ADF81200174C04A9204604F09BFD00230D
:1027F0001A460321204604F0DBFB01A804F044FC48
:102800000A21ADF80C1001A9204604F0F7FB0121C4
:10281000204604F0A5FA01221146204604F03CFCB3
:102820000021204604F053FD064A47F6FF7124328A
:1028300011800121204604F099FA07B030BD000054
:10284000000C01400008004030B587B0012108208D
:1028500003F09AFA0121042003F0B2FA0120ADF846
:10286000000004248DF80340264D6946284600F0F8
:102870006DFE0121042003F0A3FA0221ADF800103F
:102880008DF803406946284600F060FE04A804F075
:1028900097FD0020ADF810004FF6FF71ADF8141051
:1028A000ADF81600ADF81200174C04A9204604F04C
:1028B00039FD00231A460321204604F079FB01A8C4
:1028C00004F0E2FB0A21ADF80C1001A9204604F047
:1028D00095FB0121204604F043FA012211462046CF
:1028E00004F0DAFB0021204604F0F1FC064A47F62A
:1028F000FF71243211800121204604F037FA07B01D
:1029000030BD000000080140000C004001460020DE
:1029100047F6FF7200290BD0012910D0022914D0EC
:10292000032904D10C490888101A00B20A807047A4
:102930004FF08041888C101A00B28A847047074992
:102940000888101A00B20A80704705490888101AD2
:1029500000B20A80704700002404004024080040B0
:10296000240C004000B587B0182101A8FDF7F5FC44
:102970000021FF208DF80400FB208DF805001320B6
:102980008DF806000D208DF80700214A10688DF89B
:102990000800030A8DF80930030C8DF80A30000E88
:1029A0008DF80B0050688DF80C00030A8DF80D307F
:1029B000030C8DF80E30000E8DF80F0090688DF826
:1029C0001000030A8DF81130030C8DF81230000E40
:1029D0008DF81300D0688DF81400020A8DF81520C8
:1029E000020C8DF81620000E8DF81700022001AAA7
:1029F000135C1944C9B2401CC0B21428F8D38DF836
:102A00001810152101A804F081FD07B000BD0000D9
:102A10003C01002010B502F091F8294C02281CD08E
:102A200002F08CF8062831D00020FFF76FFF2168F4
:102A3000084420600120FFF769FF6168081A6060A0
:102A40000220FFF763FFA168081AA0600320FFF7C8
:102A50005DFFE1680844E06010BD0020FFF756FF0D
:102A60002168081A20600120FFF750FF61680844C0
:102A700060600220FFF74AFFA1680844A0600320BD
:102A8000FFF744FFE168081AE06010BD0020FFF77F
:102A90003DFF2168081A20600120FFF737FF6168B9
:102AA000084460600220FFF731FFA1680844A0607D
:102AB0000320FFF72BFFE168081AE06010BD00005B
:102AC0003C01002010B500F031F90446B42C03D9C4
:102AD0005A24204600F086FA2046BDE81040002126
:102AE000FEF72EBB2DE9F04186B0134802AC90E80A
:102AF0000E00C0680EC40590002400264FF47A68CA
:102B000002AF0196651CE8B201A900F02DF9BDF8ED
:102B10000400404504D900F019FA37F81500019077
:102B2000E8B2BDF8041005F0D5F8641C062CE8DB0B
:102B300006B0BDE8F08100004414010810B500F0B3
:102B40003DF9A0F57F41FF3900D10120BDE81040DB
:102B500003F056BF10B500F04FF9C0B2BDE8104009
:102B600002F022BA70B5054645F6FF76304600F011
:102B7000EBFA002812D10A4C206940F002002061D3
:102B80006561206940F040002061304600F0DCFAC9
:102B9000012803D0216921F00201216170BD0000EC
:102BA000002002400748C068C10701D001207047DB
:102BB000410701D502207047C00601D503207047A8
:102BC000002070470020024010B500F069F9A0F520
:102BD0002A41553901D000F0D7F9FFF773FFFFF70D
:102BE000B9FFFFF7ABFF00F00DF8BDE81040FFF7AD
:102BF00079BF00000248016941F08001016170471E
:102C0000002002402DE9F04188B04FF00008CDF8D7
:102C10001C80CDF81880CDF8148005AB06AA07A952
:102C2000042000F007F90598FDF79AFE04460D46CA
:102C30000698FDF795FE06460F460798FDF790FEAD
:102C400002460B4622A0CDE90067CDE9024505F01A
:102C50005BFE264C0798264DA04205DC0698A04254
:102C600002DC0598A04208DD29460795214A069214
:102C7000214B0593042000F0FFF9DDE90532042023
:102C8000079902F0EFFECDF81C80CDF81880CDF842
:102C9000148005AA06A907A800F022F90798A04207
:102CA00005DC0698A04202DC0598A04208DD134826
:102CB0000790CDF818802A460595002100F012FAF9
:102CC000DDE90521079802F059FF08B0BDE8F08161
:102CD0004652656164205049443A252E33662C20C3
:102CE000252E33662C20252E33660A000000204155
:102CF000CDCCCC3D0AD7233C0AD7A33BCDCCCC3E90
:102D00002DE9F04105460E461746002407E0284607
:102D100000F009F826F81400AD1C641CA4B2BC42F3
:102D2000F5D3BDE8F08100887047000008B54FF684
:102D3000FF700090012269460548FFF7E1FFBDF8EA
:102D4000001004A005F0E0FDBDF8000008BD000083
:102D500070C00308465265616420414B4D20416EAE
:102D6000676C653A25640A0038B504460D460020B4
:102D70000090601E052806D86000084B01226946B5
:102D80001844FFF7BDFFBDF800002880BDF8002003
:102D9000214603A005F0B8FD38BD000050C003086F
:102DA00046526561642041524D204D656469616EF3
:102DB0003A25642C2025640A0000000008B54FF66F
:102DC000FF700090012269460548FFF799FFBDF8A2
:102DD000001004A005F098FDBDF8000008BD00003B
:102DE00006C003084652656164207265706F727494
:102DF0003A25640A0000000008B54FF6FF70009005
:102E0000012269460548FFF77BFFBDF8001004A0CA
:102E100005F07AFDBDF8000008BD000004C00308FD
:102E2000465265616420636172547970653A256425
:102E30000A0000002DE9FC410F4616461D46002001
:102E400000900190032269461348FFF759FFBDF82F
:102E50000000FDF72CFD114C00222346FDF782FCFB
:102E6000FDF7C2FD3860BDF80200FDF720FD00222D
:102E70002346FDF777FCFDF7B7FD3060BDF8040091
:102E8000FDF715FD00222346FDF76CFCFDF7ACFDB8
:102E90002860BDE8FC81000030C0030800408F407E
:102EA00008B54FF6FF700090012269460548FFF70C
:102EB00027FFBDF8001004A005F026FDBDF80000B6
:102EC00008BD000002C00308465265616420496ED7
:102ED00069742056616C75653A307825580A00008F
:102EE0002DE9FC4107460E46154600200090019052
:102EF000032269461348FFF703FFBDF80000FDF702
:102F0000D6FC114C00222346FDF72CFCFDF76CFD8E
:102F10003860BDF80200FDF7CAFC00222346FDF729
:102F200021FCFDF761FD3060BDF80400FDF7BFFC3A
:102F300000222346FDF716FCFDF756FD2860BDE88C
:102F4000FC81000020C0030800408F407FB50C4882
:102F5000D0E905230169C0698DE80E0003900722BE
:102F60006946084800F004F900246D46601C35F8F5
:102F70001010C0B204F0AEFE641C062CF6DB7FBD60
:102F80004414010850C0030838B5002000F0A0F830
:102F9000012000F04DF8104C0D4B0E4A2146042044
:102FA00000F06AF8224600210C4800F09BF8FFF779
:102FB000CDFF012000F050F85A2000F013F84AF637
:102FC0005520009001226946054800F0D1F838BD2F
:102FD0000AD7A33B0AD7233CCDCCCC3DCDCCCC3EAD
:102FE00002C0030808B50090FFF7A0FEBDF800106E
:102FF000884204D001226946014800F0B9F808BDB2
:1030000070C0030838B504460D46601E05280BD86D
:1030100000956000054B01226946184400F0A8F8AD
:103020002946204604F056FE38BD000050C0030873
:1030300038B5044600200090FFF7C0FEA04207D03C
:103040000CB10120009001226946024800F090F87E
:1030500038BD000006C0030808B50090FFF7CCFE9D
:10306000BDF80010884204D001226946014800F0F2
:103070007FF808BD04C003082DE9FC410F46164641
:103080001C4604281DD8104D38462946FDF7D5F9B1
:10309000FDF733FCADF8000029463046FDF7CDF9C9
:1030A000FDF72BFCADF8020029462046FDF7C5F9D7
:1030B000FDF723FCADF8040003226946034800F045
:1030C00057F8BDE8FC81000000007A4430C00308D6
:1030D00008B5009001226946014800F049F808BD92
:1030E00000C003087CB50E4615460F4C2146FDF77F
:1030F000A4F9FDF702FCADF8000021463046FDF7CB
:103100009CF9FDF7FAFBADF8020021462846FDF7D1
:1031100094F9FDF7F2FBADF8040003226946034879
:1031200000F026F87CBD000000007A4420C00308AF
:1031300003480249416003494160704723016745E4
:1031400000200240AB89EFCD10B50446FFF72AFD01
:10315000012808D10021491CC9B20A29FBD3641EE9
:10316000A4B2002CF2D1002C00D1FF2010BD000031
:103170002DE9F05F82460F461546AAF10064B4F5CA
:10318000802F53D2FFF7D4FF4FEAD428C4F3490667
:10319000C6F58064A54200D82C46DFF894B038E02C
:1031A00032183BF812208A4203D1401C80B2A04260
:1031B000F6D3A04214D24846FFF7D4FC002006E024
:1031C000821937F810102BF81210401C80B2A04260
:1031D000F6D348464FF48062154900F045F804E004
:1031E00022463946504600F03FF8A54203D1BDE8DB
:1031F000F05FFFF7FFBC08F10108002607EB44076A
:103200000AEB440A281B85B24FF48064A54200D81B
:103210002C464FF0006000EBC82942140449484690
:10322000FFF76EFD00204FF6FF71C0E7BDE8F09F8D
:10323000EC05002070B506460D46FF20FFF784FF21
:1032400000280ED1074C206940F001002061358034
:10325000FF20FFF779FF012803D0216921F0010148
:10326000216170BD002002402DE9F04105460E4667
:103270001746002407E036F814102846FFF7DAFF57
:10328000AD1C641CA4B2BC42F5D3BDE8F0810000C3
:103290002DE9F0410546904601F02CFC07462846F2
:1032A000FDF7E6FA294C064660604046FDF7E0FA75
:1032B0002749FDF7F4F83946FDF7BFF80746A06047
:1032C00055EA08053CD039463046FDF7B0F8FDF721
:1032D000FBFAE0600546206139463046FDF755F8B7
:1032E000FDF7F2FA60610146A0614FF47A729542EF
:1032F00000DDE2601748E368834200DAE06095424F
:1033000000DD22612369834200DA2061914200DD01
:1033100062616369834200DA6061914200DDA2610B
:10332000A169814200DAA061208B03B2A08A02B2B7
:10333000208A01B2A089BDE8F04100B201F060BE70
:10334000BDE8F041012001F09BBE0000E400002038
:1033500000007A4418FCFFFF70B503460C46164681
:103360003448048000216508082B61D2DFE803F0AF
:10337000040D1824303E4B5A01800CB1012000E0AE
:103380000020BDE8704001F07BBE304601F056FEE3
:10339000334620B2BDE8704000221146FFF778BFE7
:1033A000304601F04BFE002260423346BDE87040DB
:1033B000114600B2FFF76CBF002001F03FFE600035
:1033C00002B233462846BDE870400021FFF760BFD7
:1033D000002001F033FEC4EBC430400002B233469B
:1033E0002846BDE870400021FFF752BF002001F0E1
:1033F00025FE04EB8400BDE87040002302B21946AC
:103400001846FFF745BF002001F018FE04EB8400CA
:10341000C0EB0440BDE87040002302B219461846D4
:10342000FFF736BF0180BDE87040012001F028BEE3
:10343000018070BDE400002070B502F047FB044637
:103440001A4D2888FDF71DFA2146FCF7F6FFFDF717
:103450003BFAE861E9680C1A2969091A6A690244A9
:10346000AB6918444FF47A739C4200DD1C46104D42
:10347000AC4200DA2C46994200DD1946A94200DA36
:1034800029469A4200DD1A46AA4200DA2A469842A4
:1034900000DD1846A84200DA284603B220B2BDE893
:1034A000704012B209B201F0ABBD0000E400002090
:1034B00018FCFFFF10B58A07120F0F23934021F06D
:1034C0000304054921448C689C438C608B689040C0
:1034D00003438B6010BD0000000001401FB50121B7
:1034E000042002F06DFC0121084602F069FC042072
:1034F0008DF80F0003208DF80E001024ADF80C405D
:1035000003A9114800F022F804210020FFF7D2FFA0
:10351000009400208DF8040008208DF80500012497
:103520008DF806406846FFF70DF80A208DF8080070
:1035300002208DF809008DF80A408DF80B4002A892
:1035400001F0E0FE1FBD0000000801402DE9F04140
:103550000022CC7804F00F03E40601D58C782343D5
:103560000C784FF00F0714F0FF0F4FF0010C1CD038
:1035700005680CFA02F40E882640A64211D1960086
:1035800007FA06F825EA080503FA06F848EA0505E9
:10359000CE78282E02D0482E02D002E0446100E00E
:1035A0000461521C082AE4D305600A88FF2A1ED948
:1035B0004568002202F108060CFA06F40E8826403F
:1035C000A64210D1960007FA06F825EA080503FA84
:1035D00006F848EA0505CE78282E00D14461CE7859
:1035E000482E00D10461521C082AE3D34560BDE88F
:1035F000F0810000F0B5154C002801DAE36900E025
:103600006368C0F30346420D120185B2C0F301574F
:103610009540032F07D0C2020CD50322B24093433A
:1036200043F0706209E023F07062636823F0706316
:10363000636002E0AB4343F0706201B12A430028AB
:1036400001DAE261F0BD6260F0BD000000000140FF
:103650000246002092680A4200D001207047416172
:103660007047016170470000014880797047000091
:10367000000000200148C0797047000000000020D1
:103680000148807870470000000000200048704723
:10369000CC03002034220149FCF738BE44570020F7
:1036A0000148007870470000000200200148C06A0D
:1036B000704700000058002010B50A48017B01291E
:1036C00007D10021017307F07DFE06488830FFF71F
:1036D000E1FF0548D0E90012491C42F1000206C092
:1036E00010BD00007857002080020020FEB50020A9
:1036F0000090019002900024FF208DF80000FB2034
:103700008DF8010009208DF802000C208DF80300CF
:10371000194D1A4E3146686AFCF78FFEFDF7D4F852
:103720008DF80400000A8DF805003146A86AFCF700
:1037300084FEFDF7C9F88DF80600000A8DF8070031
:103740003146E86AFCF779FEFDF7BEF88DF808000F
:10375000000A8DF80900022069460A5C2244D4B2AE
:10376000401CC0B20A28F8D38DF80A400B216846E5
:1037700003F0CCFEFEBD00000058002000401C46B7
:1037800070B586B018216846FCF7E7FD0024FF20DD
:103790008DF80000FB208DF8010015208DF8020047
:1037A0000E208DF803003B4D3B4E3146E868FCF798
:1037B00044FEFDF789F88DF80400000A8DF8050035
:1037C00031462869FCF739FEFDF77EF88DF80600D2
:1037D000000A8DF8070031466869FCF72EFEFDF7F8
:1037E00073F88DF80800000A8DF809003146286842
:1037F000FCF723FEFDF768F88DF80A00000A8DF843
:103800000B0031466868FCF718FEFDF75DF88DF88F
:103810000C00000A8DF80D003146A868FCF70DFE7B
:10382000FDF752F88DF80E00000A8DF80F003146B2
:10383000A869FCF702FEFDF747F88DF81000000AB2
:103840008DF811003146E869FCF7F7FDFDF73CF80B
:103850008DF81200000A8DF813003146286AFCF733
:10386000ECFDFDF731F88DF81400000A8DF8150015
:10387000022069460A5C2244D4B2401CC0B2162819
:10388000F8D38DF816401721684603F03FFE06B0C6
:1038900070BD00000058002000007A442DE9FC4172
:1038A0000026019601AA01217F200AF015FE054697
:1038B0008020019001AA012106200AF00DFE40EAB5
:1038C0000504642007F0D4F8019601AA01217F20A5
:1038D0000AF002FE40EA04056A46012100200AF0CF
:1038E000D7FD40EA05069DF80010EA2905D04BA057
:1038F00005F00AF80120BDE8FC814E4C607810B15B
:103900004DA005F001F84B480021A0300AF01EFF41
:103910000021012009F0F8FA40EA060525B1607897
:1039200010B14AA004F0F0FF24200BF075FA40EA31
:10393000050626B1607810B14EA004F0E5FF0CF04A
:103940004DFD514807F09DFB40EA060525B1607822
:1039500010B14EA004F0D8FF07F026FA40EA0506A1
:1039600026B1607810B14FA004F0CEFF464F103F53
:10397000386880F00100386000F00101012008F093
:1039800099FF40EA060525B1607810B14BA004F01C
:10399000BBFF386880F002003860C0F340010420AB
:1039A00008F088FF40EA050626B1607810B14AA009
:1039B00004F0AAFF386880F0080038600121022076
:1039C00008F078FF386880F040003860C0F380115C
:1039D0000F2008F06FFF0AF0F5FA40EA060525B15E
:1039E000607810B143A004F08FFF4B4820640CF0C6
:1039F00059FE40EA05062EB1607840B147A004F0B8
:103A000083FF04E0607810B14AA004F07DFFFFF767
:103A100065FD0120207030466DE7000057484F5F7C
:103A2000414D5F49204552524F523A30782530324D
:103A3000580A0000000200206164647265737320FC
:103A40003D203078253032580D0A0000696E765FCF
:103A5000696E697469616C697A655F6C6F776572AC
:103A60005F647269766572206572726F722E0D0ADC
:103A700000000000636F6D706173735F696420659F
:103A800072726F722E0D0A0088570020646D705F8D
:103A90007365745F62696173206572726F722E0D57
:103AA0000A000000646D705F72657365745F66691B
:103AB000666F206572726F722E0D0A00696E765FF6
:103AC000656E61626C655F73656E736F72312065E0
:103AD00072726F722E0D0A00696E765F656E61629A
:103AE0006C655F73656E736F7232206572726F7290
:103AF0002E0D0A00696E765F72657365745F646D82
:103B0000705F6F64725F636F756E7465727320654A
:103B100072726F722E0D0A000000CC42436F756CFA
:103B200064206E6F7420696E697469616C697A656E
:103B30002E0D0A0049434D323039343820496E6920
:103B40007469616C697A6520537563657373667512
:103B50006C2E2E2E0D0A00000748816941F00801E5
:103B600081610648016821F47F410160016841F4E8
:103B70004C5101607047000000100240040C0140ED
:103B80002DE9F04105461448016821F470410160B7
:103B9000016841F440510160104E4FF00008C6F832
:103BA000A88100240127E809C6F8AC016806050EC3
:103BB0000120FEF764FCC6F8A8710120FEF75FFC47
:103BC000C6F8A8810120FEF75AFC641CE4B2082C58
:103BD000E9D3BDE8F0810000040C014000802142DF
:103BE00070B51348016821F470410160016841F427
:103BF000405101600F4C0120C4F8AC01D4F82C11E5
:103C000000290BD0C4F8A801FEF739FC0025C4F840
:103C1000AC51D4F82C0118B1002070BD002070BD4B
:103C20000220FEF72CFCC4F8A851012070BD000052
:103C3000040C01400080214270B50D48016821F458
:103C400070410160016841F440510160094C00205D
:103C5000206060600220FEF712FC01252560012033
:103C6000FEF70DFC6560BDE870400220FEF707BC62
:103C7000040C0140A881214270B500241448016859
:103C800021F470410160016841F400410160114D6F
:103C90000126C5F8AC610120FEF7F1FBC5F8A8616B
:103CA0000120FEF7ECFB0AE0641CE4B2322C03D9DD
:103CB000FFF7C2FF002070BD0120FEF7E0FBD5F842
:103CC0002C010028F0D1C5F8A801012070BD00002A
:103CD000040C0140008021420B4B1988002911D0AF
:103CE00000EBC00202EB0012022000EB82028A42CB
:103CF00008D9491C88B21880824201D1012070473E
:103D000000207047002070473801002010B504469D
:103D100000F018F80A4A012807D0002050801080CF
:103D20005088022809D0002010BD5188641CB1EBD6
:103D3000440FF5D2491C5180F2E70120108010BDDC
:103D40003801002010B504210348FFF781FC08B1B9
:103D5000002010BD012010BD0014014008B5012154
:103D6000202002F02DF80420ADF8000048208DF846
:103D7000030069460148FFF7E9FB08BD0014014054
:103D800038B50121102002F01BF84FF40054ADF8B3
:103D9000004010208DF8030003208DF80200054D2F
:103DA00069462846FFF7D2FB21462846FFF759FC13
:103DB00038BD00000010014038B50121042001F099
:103DC000FFFF4FF48054ADF8004010208DF8030041
:103DD00003208DF80200054D69462846FFF7B6FB23
:103DE00021462846FFF73DFC38BD00000008014091
:103DF0002DE9F04399B0602213496846FCF786FA32
:103E000000246F464FF003084FF0180904EB4405F7
:103E100007EB85060121B06801F0D2FFB088ADF84C
:103E200060008DF862808DF8639057F8250018A91E
:103E3000FFF78CFB641C082CE8DB04490F2008709A
:103E400019B0BDE8F08300006C14010836010020B1
:103E500070B5002400F056F9014641B1641CE4B28B
:103E60000EA004F051FD052C14D9012070BD13A043
:103E700004F04AFD174D184C4FF47A7605E0A81D62
:103E800000F0ECF90A2000F0B9F96068B042F6DB06
:103E9000002070BDC82000F0B1F9DBE74D50553966
:103EA00032353020426173696320496E6974204560
:103EB00072726F723A25640A000000004D50553945
:103EC00032353020426173696320496E6974204F36
:103ED0004B0A00005C1200207401002070B51848E5
:103EE000184C406804F10C05B0F57A7F1DDBA01D6D
:103EF00000F0B4F9204600F090F9284600F0FEF9F1
:103F000011482188018061884180A1888180E188F1
:103F1000C18021890181618941810C4A0C4907F0E6
:103F200073FD0B488068E06170BDA01D00F096F93C
:103F3000044800F072F92846BDE8704000F0DEB990
:103F4000740100205C120020D40500200AD7233C15
:103F5000C80500203EB5002000900190029000248A
:103F6000FF208DF80000FB208DF8010009208DF85E
:103F700002000C208DF8030000F0ECF9234D2946D7
:103F8000FCF75BFAFCF7A0FC8DF8040000F0E2F906
:103F90002946FCF752FAFCF797FC000A8DF8050059
:103FA00000F0D2F92946FCF748FAFCF78DFC8DF8B1
:103FB000060000F0C9F92946FCF73FFAFCF784FC3B
:103FC000000A8DF8070000F0CBF92946FCF735FA16
:103FD000FCF77AFC8DF8080000F0C2F92946FCF7DE
:103FE0002CFAFCF771FC000A8DF8090002206946E2
:103FF0000A5C2244D4B2401CC0B20A28F8D38DF81F
:104000000A400B21684603F081FA3EBD00401C4681
:1040100000B587B0182101A8FCF79FF90021FF2007
:104020008DF80400FB208DF8050015208DF80600A2
:104030000B208DF807002448C2888DF80820120A4A
:104040008DF8092002898DF80A20120A8DF80B20BC
:1040500042898DF80C20120A8DF80D2002888DF807
:104060000E20120A8DF80F2042888DF81020120AB7
:104070008DF8112082888DF81220120A8DF81320F5
:1040800082898DF81420120A8DF81520C2898DF8C6
:104090001620120A8DF81720008A8DF81800000AE1
:1040A0008DF81900022001AA135C1944C9B2401C02
:1040B000C0B21628F8D38DF81A10172101A803F002
:1040C00025FA07B000BD00005C12002038B50121C0
:1040D000082001F075FE4FF48044ADF80040102038
:1040E0008DF8030003208DF80200054D694628462F
:1040F000FFF72CFA21462846FFF7B1FA38BD000039
:10410000000C014010B5FFF7E1FF00F04BF90A2069
:1041100000F074F880226B21682000F0DDFA642042
:1041200000F06CF800226B21682000F0D5FA012025
:1041300000F09CFA002000F093FA322000F0B5FA6B
:1041400000223821682000F0C7FA00226A21682086
:1041500000F0C2FA00222321682000F0BDFA82227A
:104160003721682000F0B8FA7521682000F01EFAA7
:104170000446214615A004F0C7FB712C01D0012094
:1041800010BD01226B21682000F0A6FA00226C21EC
:10419000682000F0A1FA322000F087FA00210C20FC
:1041A00000F004FA044621460EA004F0ADFB482CB2
:1041B00001D0022010BD11220A210C2000F08CFA3F
:1041C0001E2000F01BF8002010BD00004D50553996
:1041D0003235302052442049443D30782530325821
:1041E0000A000000414B38393633205244204944FC
:1041F0003D3078253032580A0000000010B50446E2
:10420000FDF766F920B12046BDE81040FDF75EB924
:104210002046BDE8104006F02BBC1CB504466B469A
:1042200006223B21682000F0E3F9002814D19DF814
:1042300001109DF8002041EA022121809DF8031021
:104240009DF8022041EA022161809DF805109DF849
:10425000042041EA0221A1801CBD00007CB5044677
:104260006B4606224321682000F0C2F9F0BB2249C8
:1042700001F108024868B0F57A7F17DA401C4860FF
:104280009DF801009DF8001040EA012010809DF883
:1042900003009DF8021040EA012050809DF80500BF
:1042A0009DF8041040EA0120908023E09DF8010071
:1042B0009DF8001040EA01200F490E3108809DF85A
:1042C00003309DF8025043EA05234B809DF80530EA
:1042D0009DF8045043EA05238B801388C01A208080
:1042E00048885388C01A6080888800E002E091887E
:1042F000401AA08000207CBD740100207CB50446DB
:104300006B46062203210C2000F072F90546A5B980
:104310009DF800009DF8011040EA012020809DF8E2
:1043200002009DF8031040EA012060809DF804001F
:104330009DF8051040EA0120A08011220A210C20DE
:1043400000F0CAF928467CBD01488069704700002A
:104350005C12002001484069704700005C12002098
:104360000148C069704700005C12002070B50B4C1A
:10437000002525600A48016821F07041016001684C
:1043800041F040510160A5600220FEF788F801204D
:1043900020600220FEF783F8256070BDB4812142C1
:1043A000040C014038B50121082001F009FD4FF44B
:1043B0002044ADF8004010208DF8030003208DF854
:1043C0000200054D69462846FFF7C0F821462846F9
:1043D000FFF747F938BD0000000C014070B50B4CE9
:1043E000002525600A48016821F0704101600168DC
:1043F00041F0405101600126A6600220FEF74FF80F
:1044000026600220FEF74BF8256070BDB481214282
:10441000040C01402DE9F04781460024164801684C
:1044200021F070410160016841F000410160002508
:10443000124E00274FF00108C6F8B4710220FEF7B3
:104440002EF8C6F8B4816006040ED6F83C0108B117
:10445000641CE4B20120FEF722F86D1CEDB2082DB9
:10446000EAD3B9F1000F04D0FFF780FF2046BDE882
:10447000F087FFF7B3FFF9E7040C01400080214209
:104480002DE9F04105461448016821F070410160B2
:10449000016841F040510160104E4FF00008C6F82D
:1044A000B48100240127E809C6F8BC016806050E9E
:1044B0000220FDF7F4FFC6F8B4710220FDF7EFFF0C
:1044C000C6F8B4810220FDF7EAFF641CE4B2082CB0
:1044D000E9D3BDE8F0810000040C014000802142D6
:1044E00070B50B48016821F070410160016841F02E
:1044F00040510160074C0120A06020600420FDF7BE
:10450000CEFF0025A5600420FDF7C9FF256070BD22
:10451000040C0140B481214210B50C48016821F01F
:1045200070410160016841F040510160084C002079
:104530002060A0600420FDF7B2FF01202060A06091
:10454000BDE810400420FDF7AABF0000040C0140A4
:10455000B481214270B500241248016821F07041F5
:104560000160016841F0004101600F4D0126C5F86E
:10457000BC610120FDF793FFC5F8B4610120FDF790
:104580008EFF07E0641CE4B2FA2C03D9FFF7C4FFE6
:10459000012070BDD5F83C010028F3D1C5F8B40165
:1045A00070BD0000040C01400080214270B504463B
:1045B0000D46FFF795FF6006000EFFF761FFFFF75E
:1045C000C9FF2846FFF75CFFFFF7C4FFFFF788FF2E
:1045D000012000EB4400C0B2FFF752FFFFF7BAFF23
:1045E0000020FFF717FF0446FFF796FF204670BD37
:1045F0002DE9F04106460F4615461C46FFF770FFB1
:104600007006000EFFF73CFFFFF7A4FF20B1FFF795
:1046100083FF0120BDE8F0813846FFF731FFFFF747
:1046200099FFFFF75DFF012000EB4600C0B2FFF7E6
:1046300027FFFFF78FFF08E0012D0CD00120FFF7C7
:10464000E9FE20706D1EEDB2641C002DF4D1FFF761
:1046500063FF0020DEE70020FFF7DCFE2070F1E7BB
:10466000C006020E1C21682000F036B8C006020EFB
:104670001B21682000F030B8BC2801D3012210E0D3
:10468000622801D302220CE02A2801D3032208E089
:10469000142801D3042204E00A2801D3052200E0F3
:1046A00006221A21682000F017B810B504464FF40E
:1046B0007A70844200D90446042C00D20424B0FB52
:1046C000F4F0401EC2B21921682000F005F860081D
:1046D000BDE81040FFF7D0BF70B504460D46164642
:1046E000FFF7FEFE6006000EFFF7CAFEFFF732FF7F
:1046F00018B1FFF711FF012070BD2846FFF7C0FE7B
:10470000FFF728FF3046FFF7BBFEFFF723FF18B186
:10471000FFF702FF012070BDFFF7FEFE002070BD15
:10472000884201DA084670479042FCDD1046704727
:104730002DE9F04707460D46164600F0DBF98246A4
:104740006842FCF795F84B4C804660603846FCF7B1
:104750008FF88146A0607042FCF78AF84649FBF763
:104760009EFE5146FBF769FE8246E0602F433743C9
:1047700056D041464846FBF708FE05465146FBF732
:1047800004FEFCF7A1F8206141464846FBF74FFEC6
:1047900006465146FBF7F9FDFCF796F86061304696
:1047A0005146FBF744FEFCF78FF8A06128465146BE
:1047B000FBF73DFEFCF788F8E06100F0BFF9022846
:1047C00033D021694FF47A70814200DD20612B499A
:1047D00022698A4200DA21616269824200DD6061F9
:1047E00062698A4200DA6161A269824200DDA061E9
:1047F000A2698A4200DAA161E269824200DDE061D9
:10480000E069884200DAE161A08B03B2208B02B23A
:10481000A08A01B2208ABDE8F04700B200F0F0BBE8
:10482000BDE8F047012000F02BBC20694FF42F7148
:10483000884200DD216112482269824200DA20614B
:1048400062698A4200DD61616269824200DA606108
:10485000A2698A4200DDA161A269824200DAA061F8
:10486000E2698A4200DDE161E1698142CCDAE0611E
:10487000CAE700008800002000007A4418FCFFFF0F
:1048800044FDFFFF2DE9F04106460C4690464046A8
:1048900000F0D4FB2C4F3C80614220B20DB2082EB8
:1048A0004FD2DFE806F0040E151D252D3A490020F1
:1048B00038800CB1012000E00020BDE8F04100F09C
:1048C000DFBB4346BDE8F04100221146FFF730BF91
:1048D00043462846BDE8F04100221146FFF728BFB5
:1048E0004346BDE8F041002201461046FFF720BFD5
:1048F00043462946BDE8F04100221046FFF718BFA5
:10490000002000F09BFB04EB8400BDE8F041002395
:1049100002B219461846FFF70BBF002000F08EFBCD
:1049200004EB8400C0EB0440BDE8F041002302B278
:1049300019461846FFF7FCBEBDE8F041012000F023
:104940009FBBBDE8F0810000880000202DE9F04108
:1049500001F0BCF804462A4F3888FBF792FF214645
:10496000FBF76BFDFBF7B0FF386239690C1A796908
:104970000D1AB9690E18F9690F1800F0DFF802284E
:1049800022D04FF47A70844200DD04461D498C42E7
:1049900000DA0C46854200DD05468D4200DA0D4600
:1049A000864200DD06468E4200DA0E46874200DD72
:1049B00007468F4200DA0F463BB232B229B220B22C
:1049C000BDE8F04100F01CBB4FF42F70844200DDC5
:1049D00004460D498C4200DA0C46854200DD05464E
:1049E0008D4200DA0D46864200DD06468E4200DA30
:1049F0000E46874200DD07468F42DDDA0F46DBE7D1
:104A00008800002018FCFFFF44FDFFFFF0B50346BF
:104A10000D464FF6FF76094F0AE0187807F07EFB47
:104A200028B1587837F81040A64200D926469B1C7A
:104A30006D1E681CF1D13046F0BD00000C03002053
:104A400030B4154CA478072C23D2DFE804F02204FC
:104A50000722191C1F0030BCFFF76ABE4FF42F75E8
:104A6000A84200DD28460D4CA04200DA2046A942AB
:104A700000DD2946A14200DA214630BCFFF758BECE
:104A800030BCFEF705BC30BCFCF75CBA30BCFFF7AD
:104A90004FBE30BC704700005000002044FDFFFFB7
:104AA00030B401EB81014FF6FF7303EA4101104B73
:104AB0009B78072B19D2DFE803F0180407180F12B0
:104AC000150030BCFFF7DEBE4FF42F73994200D9BA
:104AD000194630BCFFF7D6BE30BCFEF73DBC30BC3B
:104AE000FCF742BB30BCFFF7CDBE30BC70470000C6
:104AF000500000200B4881780B4801290AD0022978
:104B000009D0032909D0052909D0042902D0062992
:104B100000D1064870470648704706487047064867
:104B20007047000050000020148E244314AE0F4341
:104B30009A19564300802E439A193F4301488078C2
:104B40007047000050000020094881780948012979
:104B500009D0022908D0032905D0074A052905D024
:104B6000042900D11046704704487047104670472A
:104B700050000020F8334C4333335743B6537B4344
:104B8000084881780848072906D2DFE801F00505C2
:104B900004050506080005487047054870470548A4
:104BA00070470000500000200000A54400001A4596
:104BB000000051440000824470B50B48FDF7FCFC36
:104BC0000020094B03F1100202F1100453F82010E9
:104BD00052F820504D1B44F8205042F82010401C41
:104BE000C0B20428F2D370BDEC0300200021044AB7
:104BF00052F8213040F82130491C0429F8DB704775
:104C00001C0400202DE9F04F85B004460025002645
:104C10000196029603960496FFF796FFFFF7B0FF02
:104C2000FFF768FF0090FFF7C7FFDFF8508201AF82
:104C3000642158F825004843FBF71AFE47F8250081
:104C40006D1C042DF4DB8E4DDFF83882DFF838A2BE
:104C5000A8786FF00109072839D2DFE800F0E404F2
:104C600039E46E94B000DDE90101FBF78EFB0646E6
:104C70000399FBF78AFB0499FBF787FB4946FBF78F
:104C80004CFCFBF721FE2080DDE90101FBF7CFFBA7
:104C90000399FBF7CCFB0499FBF777FB4146FBF745
:104CA000CCFBFBF711FE608030460399FBF7BFFB9E
:104CB0000499FBF7BCFB4146FBF7BFFB0099FBF7F0
:104CC000EEFB5146FBF7B9FBFBF7FEFDA080AAE027
:104CD000DDE90101FBF759FB06460399FBF755FB9C
:104CE0000499FBF752FB4946FBF717FCFBF7ECFD79
:104CF0002080DDE90101FBF79AFB0399FBF797FBA5
:104D00000499FBF742FB4146FBF797FBFBF7DCFD01
:104D1000608030460399FBF78AFB0499FBF787FB19
:104D20004146FBF78AFB0099FBF7B9FB5146FBF7BD
:104D300084FBFBF7C9FDA08075E0DDE90101FBF70D
:104D400024FB83460399FBF720FB0499FBF71DFB2B
:104D50004946FBF7E2FBFBF7B7FD2080668058462B
:104D60000399FBF764FB0499FBF761FB4146FBF7F2
:104D700064FB0099FBF793FB5146FBF75EFBFBF7E7
:104D8000A3FDA0804FE004990298FBF7FEFA4FF0D4
:104D9000FF31FBF7C2FBFBF797FD2080FCF79EF984
:104DA000608004990298FBF742FB3849FBF745FB0A
:104DB0000099FBF774FBFBF787FDA08033E0DDE98A
:104DC0000101FBF7E2FA06460399FBF7DEFA0499C4
:104DD000FBF7DBFA4946FBF7A0FBFBF775FD2080EC
:104DE000DDE90101FBF723FB0399FBF720FB0499A5
:104DF000FBF7CBFA4146FBF720FBFBF765FD608034
:104E000030460399FBF713FB0499FBF710FB41466F
:104E1000FBF713FB0099FBF742FB5146FBF70DFB39
:104E2000FBF752FDA0802878002823D000201349EA
:104E3000103157F8202041F82020401C0428F8DBCE
:104E4000687880B1FCF7D8FD20B1FCF7D5FD0128CA
:104E500005D008E0FEF72AFC00F028F903E0FFF790
:104E60007FFA00F023F905B00448BDE8F04F103098
:104E700000F0B8BC05B0BDE8F08F00000C040020C5
:104E800050000020000080BE00007A4400007AC478
:104E90002DE9F0411048FFF7B5FE0F48001F0078DC
:104EA000002817D00D4CE069FBF70EFD05B2A06994
:104EB000FBF70AFD06B26069FBF706FD07B2206941
:104EC000FBF702FD2B4632463946BDE8F04100B201
:104ED00000F080B8BDE8F081540000201C040020E0
:104EE0001CB50020009001900021FF228DF80020C9
:104EF000FB228DF8012005228DF8022015228DF865
:104F000003200B4A92788DF804208DF805000220CA
:104F10006A46135C1944C9B2401CC0B20628F8D3D3
:104F20008DF806100721684602F0F0FA1CBD00005B
:104F3000500000203EB50020009001900290002417
:104F4000FF208DF80000FB208DF801000A208DF86D
:104F500002008DF80300134908888DF80400000A48
:104F60008DF8050048888DF80600000A8DF80700C6
:104F700088888DF80800000A8DF80900FCF7B8FC55
:104F80008DF80A00022069460A5C2244D4B2401C13
:104F9000C0B20B28F8D38DF80B400C21684602F004
:104FA000B5FA3EBD5400002010B507280ED20849BE
:104FB0008A7882420AD08870052807D1FCF788F8E1
:104FC000C1B2BDE81040002000F078BE10BD000066
:104FD0005000002070B50E4614461D4601460020C4
:104FE00000F00CF93146012000F008F921460220BA
:104FF00000F004F92946BDE87040032000F0FEB837
:1050000070B50C4D01242C700B4D28846984AA8442
:10501000EB84002405EB4400B0F92000FBF728FCEA
:105020000146204600F03CFD641CE4B2042CF1D3A0
:1050300070BD0000500000201C04002010B50F4976
:10504000002811D0012048704878002815D0FCF7BE
:10505000D3FC60B1FCF7D0FC01280ED1FFF780F93A
:10506000BDE8104000F080BD00204870ECE7FEF77E
:105070001DFBBDE8104000F077BD10BD50000020C2
:1050800010B5044600231A4619461846FFF7B8FF24
:10509000042000F0BDFB044900220A704A7020463B
:1050A000BDE8104000F0FAB85000002007498978A8
:1050B000012905D0022905D0042905D1FEF7BCB984
:1050C000FFF744BCFFF742BC7047000050000020CF
:1050D00010B50446FFF732FD024604F5FA60A4F568
:1050E000FA6100B209B2062A04D0002C01DC06DA0B
:1050F000084610BD002CFCDC01DA084610BD4FF05C
:10510000000010BDF0B587B004460D4601214FF4F4
:10511000205000F055FE0121084600F051FE01210B
:105120003348FEF767FA334E304601F039FE324F0E
:10513000384601F035FEADF80050641EADF804406D
:105140000024ADF80640ADF802406946304602F052
:10515000E9F86946384602F0E5F803A802F0A4F839
:105160006025ADF80C500120ADF80E00ADF81440EC
:10517000ADF8124003A9304601F098FF03A930466C
:1051800001F0D8FF03A9304602F018F803A9304611
:1051900002F056F803A9384601F088FF03A9384603
:1051A00002F04EF8ADF80C50ADF80E400420ADF80A
:1051B0001000ADF81440ADF8124003A9384601F0D4
:1051C000B9FF03A9384601F0F9FF0121304601F08B
:1051D000D9FD0121384601F0D5FD0121304601F00D
:1051E000C5FD0121384601F0C1FD07B0F0BD00004A
:1051F0004000160000340140002C014010B5044668
:105200000846FFF765FF4FF46161884200DB0846FE
:105210001F49884200DC0846002174B1012C17D0D8
:10522000022C21D0032C07D1404200B2194B1A1D89
:10523000002828DB1880118010BD174B1A1D00288C
:1052400002DB1880118010BD19804042108010BD13
:10525000114B08331A1D002802DB1880118010BD85
:1052600019804042108010BD404200B2094A094BEB
:1052700008321B1F002802DB1080198010BD11802E
:105280004042188010BD19804042108010BD0000BF
:10529000F0F1FFFF382C01403434014070B5002894
:1052A00000D00120C0EB4011C1EB00214FF6FF7090
:1052B00000EA0114114D2146284601F0FFFF214666
:1052C000284601F0FDFF2146284601F0FBFF21465C
:1052D000284601F0F9FF0A4D2146284601F0EEFF6D
:1052E0002146284601F0ECFF2146284601F0EAFF5E
:1052F00021462846BDE8704001F0E6BF0034014079
:10530000002C014070B50F23C27801260178002AD5
:105310001ED0144A126802F4E062C2F5E062120A7A
:10532000C2F10404D3404578A54082781A402A434C
:10533000120101F1E02181F80024007800F01F0142
:105340008E404009800000F1E020C0F8006170BD8F
:1053500001F01F0086404809800000F1E020C0F8FD
:10536000806170BD0CED00E002490843024908600D
:10537000704700000000FA050CED00E0002001F08D
:1053800017B938B51446491E022908D801EB810126
:1053900049060A0E00932346002100F001F838BDAB
:1053A0002DE9F0410746069C0D461646002B01D01C
:1053B000FFF7E4FF3146284601F006F901220649CD
:1053C000384601F0FDF9002C03D0BDE8F04100F0B3
:1053D00005B8BDE8F08100005C01002001F004BACE
:1053E00070B586B00D4616461C46072828D2DFE861
:1053F00000F027040B271219200001220023114678
:1054000020A0FFF7BEFF21E001220023114621A0CA
:10541000FFF7B7FF1AE001220023114622A0FFF791
:10542000B0FF13E001220023114623A0FFF7A9FFDC
:105430000CE001220023114623A0FFF7A2FF05E0A4
:1054400001220023114623A0FFF79BFF33462A4683
:1054500024A101A8009403F067FA00231A46022150
:1054600001A8FFF78EFF24A326A229A101A803F01B
:105470005BFA01230022032101A8FFF782FF06B097
:1054800070BD0000524F534D41535445525F583345
:1054900000000000524F534D41535445525F583362
:1054A0002D506C7573000000524F534D41535445BD
:1054B000525F583100000000524F534D4153544544
:1054C000525F52320000000053554E524953455F1F
:1054D000434152004E6F6E652043617220547970D3
:1054E0006500000056657273696F6E3A5625642E2A
:1054F00025642E256400000031373A32313A3539BF
:10550000000000004A756E20323320323032350000
:10551000257320202573000010B586B0134C4FF47E
:1055200000512046FEF79BF8A1141148FEF797F8AA
:1055300020212046FEF793F8012000900523032246
:105540000CA101A803F0F0F900230122022101A817
:10555000FFF717FF0CA101A803F0E6F901230022D1
:10556000032101A8FFF70DFF06B010BD0010014098
:105570000008014056657273696F6E3A5625642EB5
:1055800025642E2564000000494D55204552524F98
:1055900052212121000000002DE9F041804686B013
:1055A000084616461F461A4D2946FAF778FFFBF7BC
:1055B0008BF9044629464046FAF771FFFBF784F958
:1055C0000246234613A101A803F0AEF900230122ED
:1055D000022101A8FFF7D5FE29463846FAF75FFFFA
:1055E000FBF772F9044629463046FAF758FFFBF7F5
:1055F0006BF9024623460BA101A803F095F901239C
:105600000022032101A8FFF7BCFE06B0BDE8F0812F
:10561000000020414D313A25642C204D323A25645A
:10562000000000004D333A25642C204D343A2564A7
:105630000000000000B587B0012000900523032280
:105640000AA102A803F070F900230122022102A896
:10565000FFF797FE0AA102A803F066F901230022D2
:10566000032102A8FFF78DFE07B000BD56657273D7
:10567000696F6E3A5625642E25642E25640000005D
:1056800054657374204D6F646500000000B585B0EB
:1056900005A1684603F048F901231A46022168462D
:1056A000FFF76FFE05B000BD4D6F64652045727257
:1056B0006F72000000B585B0002804D008A16846CC
:1056C00003F032F903E00AA1684603F02DF9012343
:1056D0001A4602216846FFF754FE05B000BD0000DF
:1056E000536572766F2052656164204F4B21000034
:1056F000536572766F2052656164204661696C2142
:105700000000000000B585B0FBF7D1F80022084B7F
:10571000FBF728F802460B4606A1684603F004F999
:1057200001231A4602216846FFF72BFE05B000BD93
:1057300000002440566F6C746167653A252E31660F
:105740005600000000B587B0012000900523032219
:105750000AA102A803F0E8F800230122022102A80E
:10576000FFF70FFE0AA102A803F0DEF801230022D2
:10577000032102A8FFF705FE07B000BD566572734E
:10578000696F6E3A5625642E25642E25640000004C
:10579000506C656173652057616974696E672E2E60
:1057A0000000000000B585B00A49884202DD0A49C0
:1057B000FAF73DFEFBF788F8024608A1684603F0B9
:1057C000B3F801231A4602216846FFF7DAFD05B057
:1057D00000BD0000000034430000B4435941573A73
:1057E0002564000070B505460024084E04EB8400D3
:1057F00055F8241006EBC00000F02CF805EB8401EE
:105800000861641C042CF1DB70BD0000440400201E
:1058100000220F4B04280FD80FD14FF0000101EBED
:10582000810003EBC00082608261C2610262426259
:1058300001F101010429F2DB704700EB800003EB6A
:10584000C00082608261C2610262426270470000F1
:10585000440400202DE9F04104462068FAF7E7FDF2
:105860000546A061626A01461046FAF78EFD606245
:105870002549884201DD616203E02449884200D95C
:105880006162266A01213046FAF747FE2946FAF797
:10589000D1FDE169FAF779FD6169FAF7CEFD0746B6
:1058A000616A2069FAF7C9FD804631462846FAF751
:1058B000BEFDE168FAF7C1FD4146FAF766FD3946DB
:1058C000FAF763FDA168FAF760FDA060E661256262
:1058D000FFF734F902460E480E49062A0AD0A2689C
:1058E000824200DDA060A068884200D9A160A06863
:1058F000BDE8F081A268824200DDA060A068884215
:10590000F5D9A160F3E700000000C8420000C8C25A
:105910000000C8440000C8C470B500210D4B0E4CF7
:105920000E4D0F4E002201EB810043F8302003EBB7
:10593000C00082608261C26102624262C46005612D
:105940004661491C0429EEDB074806494160826034
:10595000C46070BD44040020CDCCCC3D0AD7233CAC
:105960000AD7A33BCDCCCC3E5C000020FEB5002185
:105970000091019102910024411E052945D2FF2288
:105980008DF80020FB228DF801200A228DF80220DC
:1059900013228DF803208DF804002F4E052835D0F2
:1059A0002E4801EB810100EBC1053146E868FAF7AA
:1059B00044FDFAF789FF8DF80500000A8DF806000E
:1059C00031462869FAF739FDFAF77EFF8DF80700AE
:1059D000000A8DF8080031466869FAF72EFDFAF7DB
:1059E00073FF8DF80900000A8DF80A00022069464D
:1059F0000A5C2244D4B2401CC0B20B28F8D38DF804
:105A00000B400C21684601F081FDFEBD14208DF88D
:105A10000300134D31466868FAF70FFDFAF754FF9B
:105A20008DF80500000A8DF806003146A868FAF7DF
:105A300004FDFAF749FF8DF80700000A8DF8080009
:105A40003146E868FAF7F9FCFAF73EFF8DF80900ED
:105A5000000A8DF80A00C9E700007A4444040020D7
:105A60005C00002030B50D4D04280DD80DD14FF04D
:105A7000000000EB800405EBC404E1602261636177
:105A800000F101000428F4DB30BD00EB800005EBE1
:105A9000C000C1600261436130BD000044040020C9
:105AA000094A04280AD80AD14FF0000000EB80030D
:105AB00042F8331000F101000428F7DB704700EBD7
:105AC000800042F830107047440400202DE9F04176
:105AD0004FF00057214C2168FAF7ACFC05462946E7
