:020000040800F2
:10000000301500209D0100087D270008ED24000820
:10001000B925000835080008F53A0008000000007E
:10002000000000000000000000000000F7290008A8
:100030002F09000800000000E92900087D2B0008B6
:10004000B7010008B7010008B7010008B7010008B0
:10005000B7010008F5290008B7010008B70100083A
:10006000B7010008B7010008B7010008B701000890
:10007000B7010008B7010008B7010008B701000880
:10008000B7010008B7010008B7010008B701000870
:10009000B7010008B7010008B7010008B701000860
:1000A000B7010008B7010008B7010008B701000850
:1000B000B7010008B7010008B7010008B701000840
:1000C000B7010008B7010008B7010008B701000830
:1000D000B7010008B7010008B7010008B701000820
:1000E000B7010008B7010008B7010008B701000810
:1000F000B7010008B7010008B7010008B701000800
:10010000B7010008B7010008B7010008B7010008EF
:1001100089360008B70100086D310008B7010008F2
:1001200039080008B7010008B7010008B701000846
:10013000B7010008B7010008B7010008B7010008BF
:10014000B7010008B7010008B7010008B7010008AF
:10015000B7010008B7010008B7010008B70100089F
:10016000B7010008B7010008B7010008B70100088F
:10017000B7010008B7010008B7010008000000003F
:10018000B7010008B7010008DFF80CD000F0DCF977
:1001900000480047653B00083015002006488047AE
:1001A00006480047FEE7FEE7FEE7FEE7FEE7FEE75C
:1001B000FEE7FEE7FEE7FEE7292C000889010008BC
:1001C000421C10F8011B0029FBD1801A70472DE951
:1001D000FE4F81EA030404F0004421F00041009442
:1001E0004FF0000B23F0004350EA01045ED052EAC6
:1001F00003045BD0C3F30A54C1F30A552C44A4F2A0
:10020000F3340194A0FB0254C1F3130141F48011B3
:10021000C3F3130343F4801301FB024400FB034EBA
:10022000840A970A44EA815447EA8357A4FB076883
:1002300002958D0A05FB07854FEA932C04FB0C54AD
:100240002705029D4FEA065847EA1637B5EB080521
:100250006EEB070C870E920E47EA811742EA831273
:10026000A7FB0201B6EB0B0164EB00042B0D43EA84
:100270000C335E1844EB1C50DA465146E7FB020192
:10028000C5F313044FEA0B3343EA14534FEA043225
:10029000019C43EA0603A4F10C040294009CCDE9FE
:1002A00000B400F003F903B0BDE8F08F0020014670
:1002B000F9E72DE9F04D81EA030404F0004B21F049
:1002C000004514464FF0000A23F0004150EA0502B1
:1002D00020D054EA01021DD0C5F30A570246C5F3E7
:1002E0001303C1F31300C1F30A5640F4801543F41D
:1002F0008013A7EB0608101BD64608F2FD3873EBF7
:10030000050002D308F1010801E092185B41B8F141
:10031000000F03DA00200146BDE8F08D00204FF405
:100320008011064684460EE0171B73EB050705D3C4
:10033000121B63EB050306434CEA010C49084FEA24
:10034000300092185B4150EA0107EDD152EA0300F8
:1003500012D082EA040083EA0501084305D0101B8D
:10036000AB4106D20122002306E000224FF00043F9
:1003700002E06FF0010253101AEB06004CEB08513B
:1003800010EB0A0041EB0B01BDE8F04D00F07FB827
:100390000EB540F2334102910021CDE900110A4629
:1003A0000B4600F083F803B000BD01F0004330B409
:1003B00021F0004150EA010206D00A0DA2F5607258
:1003C000C1F31301002A02DC30BC00207047440F47
:1003D00044EAC104C100E01830BC00EBC25000F098
:1003E0001FB8202A04DB203A00FA02F100207047EF
:1003F0009140C2F1200320FA03F319439040704763
:10040000202A04DB203A21FA02F00021704721FA69
:1004100002F3D040C2F120029140084319467047D0
:100420000029A8BF7047401C490008BF20F0010008
:10043000704710B4B0FA80FC00FA0CF050EA0104E6
:1004400004BF10BC704749B1CCF1200421FA04F478
:1004500011FA0CF118BF012121430843A3EB0C0151
:10046000CB1D4FEA00614FEA102042BF002010BCB4
:10047000704700EBC35010440029A4BF10BC704764
:10048000401C490008BF20F0010010BC704710B5A7
:10049000141E73F1000408DA401C41F100019218A7
:1004A0005B411A4301D120F0010010BD2DE9F04D50
:1004B00092469B4611B1B1FA81F202E0B0FA80F2A5
:1004C00020329046FFF78DFF04460F4640EA0A00AF
:1004D00041EA0B0153465A46084313D0114653EAEA
:1004E000010019D0C8F140025046FFF789FF0546C8
:1004F0000E46504659464246FFF773FF084305D063
:10050000012004E020463946BDE8F08D0020054377
:1005100046EAE0762C4337430A986305E40AA0EBE9
:1005200008000022FD0A44EA47540A3002D50020A0
:100530000146E9E7010510196941DDE9084500199F
:100540006941BDE8F04DA2E7064C074D06E0E068C2
:1005500040F0010394E8070098471034AC42F6D30A
:10056000FFF716FE743C0008943C000810B50246E4
:10057000906B016C11F0500F05D0806BC16CBDE821
:10058000104010460847016C41F400710164016895
:100590008A6812F0405F19D18269BAB9CA6A12F446
:1005A000700F03D08A6812F4806F0FD14A6822F06E
:1005B00020024A60016C21F480710164016C11F425
:1005C000805F03D1016C41F00101016400F0B4FAD5
:1005D00010BD10B5806B40210164416C41F00401F5
:1005E000416400F0D4FA10BD10B5806B00F0CEFA73
:1005F00010BD00004C494A6822F440324A604A6803
:1006000043681A434A6001684A6822F480724A606B
:1006100001684A68036942EA03224A6001684A683D
:1006200022F040724A6001684A6883681A434A604F
:1006300001688A6822F400628A6001688A68C36877
:100640001A438A60816A6FF07062D14214D00168E7
:100650008A6822F070628A6001688A68836A1A4335
:100660008A6001688A6822F040528A6001688A685C
:10067000C36A1A438A6009E001688A6822F07062DE
:100680008A6001688A6822F040528A6001688A683C
:1006900022F002028A6001688A68836942EA4302A2
:1006A0008A60016AC1B101684A6842F400624A6026
:1006B00001684A6822F460424A6001684A68436AF5
:1006C0004FF4604C9CFAACFC5B1EBCFA8CFC03FA49
:1006D0000CF31A434A6004E001684A6822F400629D
:1006E0004A600168CA6A22F47002CA620168CA6A72
:1006F000838B5B1E42EA0352CA6201688A6822F455
:1007000000728A6001688A68036B42EA43228A6049
:1007100001688A6822F480628A6001688A68406998
:1007200042EA802088607047002301402DE9F041B3
:1007300086B000253748016841F4800101600068F7
:1007400000F48000019002220121382000F08EFE8A
:10075000382000F07FFE31482F4901604FF44031CE
:1007600041604FF080718160012404618461056201
:10077000C5622B498162C5600827C7610463446173
:1007800000F006FA4FF00408CDF80880039407241F
:10079000049402A9214800F013F9052502950220CE
:1007A000039002A91D4800F00BF9062602960320CB
:1007B000039002A9194800F003F90294CDF80C80C7
:1007C00002A9164800F0FCF80E200290039502A939
:1007D000124800F0F5F80F200290039602A90F4886
:1007E00000F0EEF80C200290039402A90B4800F0F0
:1007F000E7F80D200290039702A9084800F0E0F8FE
:1008000008490822A1F1A80000F04CFA06B0BDE8A2
:10081000F0810000303802400020014064010020D7
:100820000100000F0C020020014908607047000021
:100830003C080040FEE70000014800F0D1BA00008B
:10084000AC01002001680A4BCAB2103AA3FB023285
:100850001209084B9B5CC365032A04D96FF3090195
:10086000091D816502E06FF309018165806D7047A4
:10087000ABAAAAAA543C0008014600208A6A8B69E8
:10088000002B0FD0B3F5005F1DD08AB3012A30D002
:10089000022A2ED0032A04D1C96A11F0807F00D029
:1008A000012070471AB1012A07D0022AF9D1C96A7A
:1008B00011F0807FF5D001207047C96AB1F1C07F87
:1008C000FAD1012070475AB1012A0BD0022A07D071
:1008D000032AF7D1C96AB1F1C07FF3D10120704773
:1008E00001207047C96A11F0807FFAD0012070475B
:1008F000FFE70120704710B4D0F800C0DCF80040DA
:1009000024F48024CCF80040D0F800C0CCF80430A7
:100910008368402B05D0036899600068C26010BCF2
:10092000704703689A600068C16010BC70477047E8
:100930004FF40041012809D002280BD003280DD024
:10094000042802D1074800684162704706480068E1
:10095000416270470548006841627047044800687A
:1009600041627047F00400203C040020780400201D
:10097000B4040020012806D0022809D003280CD096
:10098000042813D10EE00A480068406A81B20DE0E5
:1009900008480068406A81B208E007480068406A79
:1009A00081B203E005480068406A81B2084670479A
:1009B0003C04002078040020B4040020F00400204F
:1009C00038B44FF0000CCDF800C090F83C20012A5C
:1009D0001BD0012280F83C200A680724092A17D975
:1009E0000368DD680A3A02EB420204FA02F225EAE1
:1009F0000202DA600A788B680A3A02EB42029340FC
:100A00000268D4682343D36014E038BC02207047E6
:100A100003681D6902EB420204FA02F225EA0202AF
:100A20001A610A788B6802EB4202934002681469EB
:100A3000234313614A681F24072A15D203685D6B9C
:100A4000521E02EB820204FA02F225EA02025A6303
:100A50000A8893B20A79521E02EB8202934002681E
:100A6000546B234353632CE00D2A15D203681D6B8E
:100A7000D21F02EB820204FA02F225EA02021A6392
:100A80000A8893B20A79D21F02EB8202934002686D
:100A9000146B2343136314E00368DD6A0D3A02EB21
:100AA000820204FA02F225EA0202DA620A8893B2AA
:100AB0000A790D3A02EB820293400268D46A23431A
:100AC000D362184A184B04689C4206D10C68122C59
:100AD00003D1546844F48004546004689C421CD1DF
:100AE0000B68102B01D0112B17D1536843F400036E
:100AF00053600968102910D10C490D4A0968B1FBEF
:100B0000F2F101EB810149000091009929B10099AE
:100B1000491E009100990029F9D180F83CC038BCE9
:100B20000020704700230140002001400400002005
:100B300040420F000000000010B50D48406900EB76
:100B4000400101EBC000FFF723FC9FED0B1B53ECB2
:100B5000112BFFF73CFB9FED0A1B53EC112BFFF70A
:100B6000A8FBFFF722FC0849086010BD0000000048
:100B70000C020020000000006666666666660A4099
:100B80000000000000F88F400C0000207047704704
:100B900070B504460025002C03D0206C002610B14F
:100BA00007E0012070BD666484F83C60204600F0D8
:100BB0001BF8206C10F0100F04D0012584F83C6065
:100BC000284670BD206C20F4885040F0020020645C
:100BD0002046FFF70FFD6664206C20F0020040F015
:100BE00001002064EAE7000070B586B00546286879
:100BF000A0F18041B1F5903145D10026234801682C
:100C000041F480710160006800F480700090204819
:100C1000016841F001010160016801F001010091EA
:100C2000016841F004010160006800F004000090D8
:100C3000F020019003240294039601A9154800F0C6
:100C40008BFA3C2001900294039601A9124800F00F
:100C500083FA134C114820606660A660E6600015B8
:100C60002061800060618000A0618011E06140022D
:100C7000206266620120A062E6622663204600F0E0
:100C8000A9F9AC63A56306B070BD0000443802400A
:100C90003038024000000240000802401064024068
:100CA000AC01002038B504460023009394F83C00C2
:100CB000012809D0012084F83C002068D0F808C041
:100CC0001CF0010F02D018E0022038BDD0F808C097
:100CD0004CF0010CC0F808C03B48DFF8F0C00068D9
:100CE000B0FBFCF000EB40000090009828B10098A9
:100CF000401E009000980028F9D12068D0F808C064
:100D00001CF0010F5DD0D4F840C02CF0010C2CF485
:100D1000C06C4CF4807CC4F840C0406810F4806F14
:100D200005D0206C20F4005040F480502064206CEA
:100D300010F4805F04D0606C20F00600606400E076
:100D4000636484F83C30224DA36B2248D863A36BC4
:100D500021481864A36B2148D86423686FF02200EF
:100D600018602068436843F08063436020688368AC
:100D700043F4807383602068134600F14C0C0A46EC
:100D80006146A06B00F09CF9686810F01F0F0AD054
:100D90002068A0F18041B1F5903112D1816811F045
:100DA000405F0AD00DE02068816811F0405F08D1F3
:100DB000816841F08041816003E0816841F08041B9
:100DC0008160002038BD00000400002040420F0078
:100DD000002301406D050008E9050008D30500085F
:100DE0002DE9F84304464FF00008CDF8008076481E
:100DF0004FF416510068B0FBF1F7A56D2E6894F81A
:100E00005C00082101FA00F0304211D0206802682D
:100E100012F0040F0CD0026822F00402026094F871
:100E20005C0001FA00F0A860606D40F001006065B0
:100E300094F85C1065488840304209D021684969BF
:100E400011F0800F04D0A860606D40F00200606572
:100E500094F85C105E488840304209D021680968E7
:100E600011F0020F04D0A860606D40F004006065CE
:100E700094F85C1010208840304224D02168096822
:100E800011F0080F1FD0A8602068016811F4802FAE
:100E90000DD0006810F4002F04D0A16C99B1204649
:100EA000884710E0216C71B1204688470BE001684B
:100EB00011F4807F03D1016821F008010160216CE9
:100EC00009B12046884794F85C10202088403042C1
:100ED0004FF0010651D02168096811F0100F4CD075
:100EE000A86094F8350005280DD02068016811F439
:100EF000802F32D0006810F4002F29D0E16B59B355
:100F00002046884739E02068016821F01601016019
:100F10002068416921F080014161206C08B9A06C12
:100F200020B12068016821F00801016094F85C009C
:100F30003F2101FA00F0A86084F8348084F835601D
:100F4000216D00293ED001B02046BDE8F04308479E
:100F5000616C09B1204688470FE0016811F4807F79
:100F600007D1016821F01001016084F8348084F811
:100F70003560E16B09B120468847606D002821D0BB
:100F8000606D10F0010F15D0052084F83500206841
:100F9000016821F0010101600098401C0090B842F6
:100FA00004D82068006810F0010FF5D184F834806F
:100FB00084F83560E16C002904D001B02046BDE81A
:100FC000F0430847BDE8F8830400002001008000DA
:100FD000040080002DE9F041044600F0CBF90546FD
:100FE000DCB1002684F83460022084F835002068E3
:100FF000016821F0010101602068006810F0010F14
:1010000013D000F0B7F9401B052809D920206065EE
:10101000032084F83500BDE8F0810120BDE8F081AF
:101020002068006810F0010FEBD121680868234A9E
:101030001040A3686268D4F810C01A43E36843EA1A
:101040000C031A4363691A43A3691A43E3691A43F9
:10105000236A1A431043626A042A03D1236BE26AAB
:101060001A43104308602068406920F00701606A55
:1010700040EA0105012704280ED1A06A0543E06A71
:1010800050B12046FFF7F8FB30B14020606584F88E
:1010900035700120BDE8F081206845612046FFF7EA
:1010A000D1FB94F85C103F2202FA01F18160666581
:1010B00084F835700020BDE8F08100003F8010F01A
:1010C00070B504460025A66D94F8340001280DD0B3
:1010D000012084F8340094F835C00020BCF1010FE1
:1010E00006D084F834000225284670BD022070BD69
:1010F0004FF0020C84F835C060652046FFF7FBFB1B
:1011000094F85C003F2101FA00F0B06020680168AB
:1011100041F0160101602068416941F080014161A0
:10112000206C20B12068016841F00801016020684E
:10113000016841F001010160D6E731B500F01AF90C
:101140000546009CB4F1FF3F00D0641C00F012F98A
:10115000401BA042FAD338BD2DE9F84F0022DFF83A
:101160000082DFF80092DFF800A24FF0030E0F2795
:10117000012303FA02F50B682B40AB427DD1D1F875
:1011800004C0BCF1020F02D0BCF1120F12D14FEA21
:10119000D20C00EB8C0CDCF820605407E40E07FA4C
:1011A00004FB26EA0B06D1F810B00BFA04F4344322
:1011B000CCF8204006684FEA420C0EFA0CF4A64325
:1011C00091F804B00BF0030B0BFA0CFB4BEA06068C
:1011D00006604E68012E05D0022E03D0112E01D0DC
:1011E000122E11D18668A643D1F80CB00BFA0CFB75
:1011F0004BEA06068660466826EA05050E79C6F3C0
:101200000016964035434560C56825EA04048D689C
:1012100005FA0CFC4CEA040CC0F80CC0D1F804C070
:101220001CF0805F7DD0D8F800C04CF4804CC8F82A
:1012300000C0D8F800C00CF4804CCDF800C022F0FB
:10124000030C0CF1804404F59834D4F808C89507D1
:101250002D0F07FA05F62CEA0606A0F1804CBCF526
:10126000003C64D0A0F1804CBCF5013C62D0A0F100
:10127000804CBCF5023C60D000E052E0A0F1804C14
:10128000BCF5033C5CD0A0F1804CBCF5043C5AD0CA
:10129000A0F1804CBCF5053C58D0A0F1804CBCF5C9
:1012A000063C56D0A0F1804CBCF5073C54D04FF022
:1012B000080C0CFA05FC4CEA060CC4F808C8D9F86E
:1012C00000C02CEA030C4C6814F4803F01D04CEAB7
:1012D000030CC9F800C0254CD4F800C02CEA030C5C
:1012E0004D6815F4003F01D04CEA030CC4F800C06F
:1012F000DAF800C02CEA030C4C6814F4801F01D00B
:101300004CEA030CCAF800C0194CD4F800C02CEA0F
:10131000030C4D6815F4001F01D04CEA030CC4F80F
:1013200000C0521C102AFFF423AFBDE8F88F4FF025
:10133000000CBEE74FF0010CBBE74FF0020CB8E722
:101340004FF0030CB5E74FF0040CB2E74FF0050C7B
:10135000AFE74FF0060CACE74FF0070CA9E7000031
:1013600044380240003C0140083C0140043C01403C
:101370000C3C01400148006870470000000000205C
:1013800002480168491C016070470000000000200D
:1013900010B50B48016841F400710160016841F427
:1013A00080610160016841F480710160032000F0F8
:1013B00091F8002000F006F800F018F8002010BDA9
:1013C000003C024010B5044607484FF47A720068AA
:1013D000B0FBF2F000F036FC00222146501E00F077
:1013E00045F8002010BD00000400002010B50320C7
:1013F00000F070F8002211466FF00B0000F036F894
:10140000002211466FF00A0000F030F80022114669
:101410006FF0090000F02AF800221146501F00F07A
:1014200025F800221146101F00F020F80022114676
:10143000901E00F01BF800221146501E00F016F816
:1014400000221146052000F011F8BDE810400520EB
:10145000AFF3008000F01F01012202FA01F1400900
:10146000800000F1E020C0F80011704710B4184B64
:101470001B68C3F30223C3F1070CBCF1040F01D9AD
:101480004FF0040C1C1D072C01D2002300E0DB1ED2
:10149000012404FA0CFCACF1010C0CEA01019940A6
:1014A00004FA03F35B1E1A401143002808DA00F027
:1014B0000F0000F1E020090180F8141D10BC7047F6
:1014C00000F1E020090180F8001410BC7047000012
:1014D0000CED00E000F00700064A11684FF6FF032C
:1014E000194041EA002040F0FD7040F0806010603B
:1014F000704700000CED00E02DE9F05F04460E4659
:10150000DFF8D091D9F80000F7B200F00F00B04238
:101510000AD289F80070D9F8000000F00F00B0423C
:1015200002D00120BDE8F09F2078DFF8AC8110F0F8
:10153000020F07D0D8F80000A16820F0F00008439F
:10154000C8F80000207810F0010F51D0606863499E
:10155000012808D002280DD003280BD0096811F00B
:10156000020F2ED00AE0096811F4003F06D10120D5
:10157000BDE8F09F096811F0007F1FD0D8F8001077
:1015800021F003010843C8F80000FFF7F3FE054609
:10159000606841F2883A012816D0022829D0032831
:1015A0003CD0D8F8000010F00C0F51D0FFF7E2FE4D
:1015B000401B504547D90320BDE8F09F0120BDE8FE
:1015C000F09F0120BDE8F09FD8F8000000F00C006B
:1015D00004283DD0FFF7CEFE401B504502D9032022
:1015E000BDE8F09FD8F8000000F00C000428F1D10D
:1015F0002EE0D8F8000000F00C00082828D0FFF7F3
:10160000B9FE401B504502D90320BDE8F09FD8F831
:10161000000000F00C000828F1D119E0D8F8000013
:101620004FF00C0B3BEA000012D0FFF7A3FE401B6B
:10163000504502D90320BDE8F09FD8F800003BEAEE
:101640000000F2D104E0D8F8000010F00C0FADD18A
:10165000D9F8000000F00F00B0420AD989F80070F4
:10166000D9F8000000F00F00B04202D00120BDE820
:10167000F09F207810F0040F07D0D8F80000E16840
:1016800020F4E0500843C8F80000207810F0080F5C
:1016900008D0D8F80000216920F4604040EAC10079
:1016A000C8F8000000F058F8D8F80010F02292FABC
:1016B000A2F201F0F001B2FA82F2D140084A515C84
:1016C000C840084908600020FFF77CFE0020BDE804
:1016D000F09F0000003C0240083802400038024001
:1016E0005C3C00080400002001490120C8647047E8
:1016F00000004742014800687047000004000020D5
:1017000000B5FFF7F7FF074909684FF4E05292FA76
:10171000A2F201F4E051B2FA82F2D140024A515CE5
:10172000C84000BD083802406C3C000800B5FFF717
:10173000E1FF074909684FF4604292FAA2F201F40E
:101740006041B2FA82F2D140024A515CC84000BD09
:10175000083802406C3C000810B41F48006810F0C4
:101760000C011E481BD04FEA600C042916D0082932
:1017700015D11B4A116801F03F01136813F4800F63
:1017800047F6C0730DD0BCFBF1F01168194093FA15
:10179000A3F3B3FA83F3D94048430CE0604610BC8E
:1017A0007047B0FBF1F01168194093FAA3F3B3FA54
:1017B00083F3D940484311684FF4403292FAA2F2C1
:1017C00001F44031B2FA82F2D140491C4900B0FB29
:1017D000F1F010BC70470000083802400024F4000B
:1017E000043802402DE9F84F0446DFF81C842078C5
:1017F000A8F1040710F0010FA7F1040560D0D8F894
:10180000000000F00C00042809D0D8F8000000F017
:101810000C0008280DD1386810F4800F09D0286812
:1018200010F4003F4CD06068002849D10120BDE889
:10183000F88F6068B0F5803F14D0B0F5A02F16D0B7
:10184000286820F480302860286820F480202860F0
:10185000606810B3FFF78EFD0646286810F4003F5D
:101860000ED02DE0286840F480302860F0E728682A
:1018700040F480202860286840F480302860E7E742
:10188000FFF778FD801B642802D90320BDE8F88F9C
:10189000286810F4003FF3D012E0FFF76BFD064616
:1018A000286810F4003F0BD0FFF764FD801B64280C
:1018B00002D90320BDE8F88F286810F4003FF3D167
:1018C0002078DFF8489310F0020F4FF0000663D045
:1018D000D8F800004FF0F80B10F00C0F16D0D8F825
:1018E000000000F00C00082803D1386810F4800FC5
:1018F0000CD0E068C8B30120C9F80000FFF73AFD3A
:101900008246286810F0020F16D022E0286810F0F6
:10191000020F05D0E068012802D00120BDE8F88F51
:1019200028689BFAABF22169B2FA82F220F0F80043
:101930009140084328602FE0FFF71CFDA0EB0A0050
:10194000022802D90320BDE8F88F286810F0020FA2
:10195000F2D028689BFAABF22169B2FA82F220F049
:10196000F80091400843286016E0FFE7C9F80060DE
:10197000FFF700FD8246286810F0020F0CD0FFF739
:10198000F9FCA0EB0A00022802D90320BDE8F88F79
:10199000286810F0020FF2D1207810F0080F34D030
:1019A0009B48DFF870B26169C1B101210160FFF7A6
:1019B000E1FC8246DBF8000010F0020F25D1FFF7B2
:1019C000D9FCA0EB0A00022802D90320BDE8F88F59
:1019D000DBF8000010F0020FF1D016E00660FFF710
:1019E000C9FC8246DBF8000010F0020F0DD0FFF7B3
:1019F000C1FCA0EB0A00022802D90320BDE8F88F41
:101A0000DBF8000010F0020FF1D1207810F0040F85
:101A100043D08148016841F080510160006800F0C6
:101A200080500090DFF8F4B1DBF8000040F48070E3
:101A3000CBF80000FFF79EFC8246DBF8000010F4B4
:101A4000807F0DD1FFF796FCA0EB0A00022802D997
:101A50000320BDE8F88FDBF8000010F4807FF1D0A0
:101A6000A068DFF8BCB1012818D005281DD0DBF82C
:101A7000000020F00100CBF80000DBF8000020F0AF
:101A80000400CBF80000A06868B3FFF773FC82463F
:101A9000DBF8000010F0020F14D03CE0DBF800008F
:101AA00040F00100CBF80000EDE7DBF8000040F06B
:101AB0000400CBF80000DBF8000040F00100CBF898
:101AC0000000E0E7FFF756FCA0EB0A0141F2883086
:101AD000814202D90320BDE8F88FDBF8000010F046
:101AE000020FEFD017E0FFF745FC8246DBF800005D
:101AF00010F0020F0FD0FFF73DFCA0EB0A0141F2FE
:101B00008830814202D90320BDE8F88FDBF800005D
:101B100010F0020FEFD1A069F0B3D8F8001001F077
:101B20000C0108296CD0022810D0C9F86060FFF7BA
:101B300021FC0446286810F0007F5ED0FFF71AFCF5
:101B4000001B022855D90320BDE8F88FC9F8606052
:101B5000FFF710FC0646286810F0007F0BD0FFF757
:101B600009FC801B022802D90320BDE8F88F2868F1
:101B700010F0007FF3D1216AE0694FF0FF3340EAB3
:101B8000010247F6C07191FAA1F1606AB1FA81F1E0
:101B900000FA01F1A06A00E02FE003EB50004FF4DF
:101BA000403393FAA3F3B3FA83F398400843104306
:101BB0004FF0706292FAA2F2E16AB2FA82F29140B8
:101BC000084338600120C9F86000FFF7D3FB0446E2
:101BD000286810F0007F10D1FFF7CCFB001B022813
:101BE00002D90320BDE8F88F286810F0007FF3D0F9
:101BF00003E0286810F0007FA0D10020BDE8F88F36
:101C00000120BDE8F88F000008380240000047427C
:101C1000800E474274380240403802400070004055
:101C2000703802404FF0E021042804D0086920F009
:101C3000040008617047086940F0040008617047BB
:101C400070470000401EB0F1807F01D30120704733
:101C50004FF0E0214861044AF020107000208861B4
:101C6000072008610020704723ED00E010B5FFF762
:101C7000E7FF10BD7047704710B490F83820012A74
:101C80002AD0012380F83830022280F839200268F7
:101C9000D2F804C02CF0700CC2F804C00268D2F86C
:101CA00004C00C684CEA040CC2F804C00268D2F804
:101CB00008C02CF0800CC2F808C00268D2F808C036
:101CC00049684CEA0101916080F83930002180F8C0
:101CD000381010BC0020704710BC0220704710B5AF
:101CE0000446002C03D094F8390010B107E001201D
:101CF00010BD002084F83800204600F00DF80220C6
:101D000084F83900211D206801F01EFB012084F8B1
:101D10003900002010BD000008B50068A0F1804126
:101D2000B1F5805112D10A48016841F010010160FB
:101D3000006800F010000090012211463620FFF7E5
:101D400095FBBDE808403620FFF784BB08BD0000C6
:101D5000403802400168CA6842F00102CA60006867
:101D6000016841F0010101600020704770B5044630
:101D700094F83800012818D0012584F83850022042
:101D800084F839002068826822F0770222F47F42CA
:101D90008260086850283AD00EDC20285FD006DC2C
:101DA000002852D0102863D154E0022070BD3028A2
:101DB0005AD040285CD13EE0602832D070280CD048
:101DC000B0F5805F03D0B0F5005F51D113E020681B
:101DD000816821F0070181604AE0CB684A68896820
:101DE000206801F022FB2068816821F0770141F032
:101DF000770181603CE0CB684A688968206801F01F
:101E000014FB2068816841F48041816030E0CA6839
:101E10004968206801F0ECFB5021206801F010FBBC
:101E200026E0CA684968206801F0F5FB6021206857
:101E300001F006FB1CE0CA684968206801F0D8FB85
:101E40004021206801F0FCFA12E00021206801F036
:101E5000F7FA0DE01021206801F0F2FA08E02021E5
:101E6000206801F0EDFA03E03021206801F0E8FA83
:101E700084F83950002084F8380070BD70B50446ED
:101E80000D46002C03D094F8390010B107E0012072
:101E900070BD002084F83800204600F04CF8022085
:101EA00084F839002068816821F007018160211DD4
:101EB000206801F049FA206881688269036AD5F8D0
:101EC00000C04CEA010122F0030222F44072AE6924
:101ED000D5F808C042EA06224CEA020222F00C02BF
:101EE00022F4406222F0F00222F47042EE69D5F84A
:101EF0000CC042EA06224CEA0202D5F810C02E6A53
:101F00004FEA0C1C4CEA063C4CEA020223F0220386
:101F100023F08803D5F804C06D6943EA05134CEA41
:101F2000030381602068826120680362012084F8D5
:101F30003900002070BD704710B5044600292068A4
:101F400011D0042914D00122002101F061FA0122EC
:101F50000421206801F05CFA2068016841F0010169
:101F60000160002010BD0122002101F051FAF3E7C9
:101F70000122042101F04CFAEEE7704770B50446E7
:101F8000206801694FF0000511F0020F17D0C168F9
:101F900011F0020F13D0E91E0161012020762068A4
:101FA000806910F0030F03D02046FFF7E6FF05E03D
:101FB000204600F09DF8204600F009F925762068BB
:101FC000016911F0040F18D0C16811F0040F14D08A
:101FD0006FF004010161022020762068806910F40E
:101FE000407F03D02046FFF7C8FF05E0204600F001
:101FF0007FF8204600F0EBF825762068016911F0A3
:10200000080F18D0C16811F0080F14D06FF0080144
:102010000161042020762068C06910F0030F03D00E
:102020002046FFF7AAFF05E0204600F061F82046B1
:1020300000F0CDF825762068016911F0100F18D056
:10204000C16811F0100F14D06FF010010161082069
:1020500020762068C06910F4407F03D02046FFF747
:102060008CFF05E0204600F043F8204600F0AFF872
:1020700025762068016911F0010F09D0C16811F0BF
:10208000010F05D06FF001010161204600F0BCF89E
:102090002068016911F0800F09D0C16811F0800F2C
:1020A00005D06FF0800101612046FFF7E3FD206855
:1020B000016911F0400F09D0C16811F0400F05D03F
:1020C0006FF040010161204600F038F92068016995
:1020D00011F0200F0BD0C16811F0200F07D06FF066
:1020E000200101612046BDE87040FFF7C4BD70BD0E
:1020F000704770B504460D4694F8380001280DD09D
:10210000012684F83860022084F8390042B1042A9C
:102110001AD0082A2DD00C2A53D13EE0022070BDDF
:102120002946206801F094F92068816941F008018E
:1021300081612068816921F00401816120688169E1
:102140002A69114381613CE02946206801F0B4F915
:102150002068816941F4006181612068816921F40E
:1021600080618161206881692A6941EA0221816177
:1021700027E02946206801F0D7F92068C16941F0BD
:102180000801C1612068C16921F00401C1612068B2
:10219000C1692A691143C16113E02946206801F031
:1021A000FBF92068C16941F40061C1612068C1691F
:1021B00021F48061C1612068C1692A6941EA022174
:1021C000C16184F83960002084F8380070BD704720
:1021D00010B504460122206801F01AF92168A1F126
:1021E0008040B0F5803004D0A1F18040B0F582305D
:1021F00003D1486C40F4004048642068016841F015
:1022000001010160002010BD70B5424988427FD1B4
:10221000414CA088401C80B2A080642808D13F496E
:10222000D1F8B80258B10020C1F8B8020020A0804F
:102230003B480078012804D002280FD01AE0012082
:10224000F2E7012000F03EFA022000F03BFA032002
:1022500000F038FA042000F035FA0BE0012000F01D
:10226000ADF9022000F0AAF9032000F0A7F904203C
:1022700000F0A4F900202B4A2B49135C012B04D158
:1022800031F810305B1C21F81030401CC0B205281A
:10229000F3D36078012802D1A068401CA060A07828
:1022A000012802D1E068401CE06000201F4B20495B
:1022B0001A5C012A04D131F81020521C21F8102098
:1022C000401CC0B20628F3D300201A4B1A4903F170
:1022D000050C01F114021D5C012D04D151F82050B0
:1022E0006D1C41F820501CF80050012D04D152F80B
:1022F00020506D1C42F82050401CC0B20528EAD383
:102300002078012804D12069401C00E000E0206111
:1023100070BD00002C02002010000020000041428F
:102320004800002024000020680200203300002024
:10233000720200202900002080020020704770B542
:102340000446002C04D094F83900002510B106E0B2
:10235000012070BD84F83850204600F023F8242076
:1023600084F839002068C16821F40051C16020461A
:1023700001F0E2F92068016921F4904101612068CF
:10238000416921F02A0141612068C16841F400518E
:10239000C160E563202084F8390084F83A00002009
:1023A00070BD000010B586B00068A0F18041B1F5A5
:1023B000984126D11448016841F400210160006869
:1023C00000F4002000904FF4806001900220029001
:1023D0000120039003200490082005900B4C01A9D4
:1023E0002046FEF7B9FEE114019101A92046FEF74F
:1023F000B3FE012200213420FFF738F83420FFF724
:1024000029F806B010BD0000403802400008024024
:102410002DE9F84304460D4691461E4694F83900CE
:10242000202802D00220BDE8F8834DB3B9F1000F97
:1024300026D094F83800012825D0012084F83800EF
:102440000027E763212084F83900FEF793FF8046D8
:10245000A4F82490A4F82690E08CA0B3E08C401E51
:10246000E084A068B0F5805F10D043460022802150
:102470002046009601F002FBF0B10320BDE8F8838E
:102480000120BDE8F8830220BDE8F883434600221E
:1024900080212046009601F0F1FA10B10320BDE83A
:1024A000F88328882168C0F308004860206908B1D3
:1024B0006D1C05E0AD1C03E0216815F8010B4860B8
:1024C000E08C0028CAD143460022402120460096D5
:1024D00001F0D4FA10B10320BDE8F883202084F87D
:1024E000390084F838700020BDE8F88303A001F0BB
:1024F00003FB4FF4FA70FEF720FEF7E76572726F88
:10250000720A0000F0B587B000252548016841F047
:1025100002010160016801F002010191016841F0CE
:1025200004010160016801F004010191016841F0BA
:1025300010010160006800F0100001904FF460404D
:1025400002900126039602240494059402A91548DA
:10255000FEF702FE4FF48260029003960494059405
:10256000114F02A93846FEF7F7FD02960396049430
:10257000059402A90D48FEF7EFFD0C20029003958B
:102580000494059402A93846FEF7E6FD08488660E3
:102590000560456007488561056007B0F0BD000033
:1025A000303802400008024000100240000402409F
:1025B000B402414290024242FEE7000070B5044678
:1025C0002046FEF7D7F93B4DA0F5004045F8240022
:1025D0002046FEF7ADF905F1140155F8242051F815
:1025E0002400104441F82400143101F1140551F87D
:1025F0002420821A45F8242041F82400A1F58E7188
:1026000051F8241000EE101AA5F58E7101EB84012B
:10261000B8EEC00A81ED000A00EE100AA5F58E7131
:102620002046B8EEC00A00F0ABF8BDEEC00A05F1D6
:10263000140000EB8403B8EEC00A83ED000A1946CB
:10264000204600F061FA93ED000AA5F1AC012046A6
:1026500000F0CBF955F8240000EE100A1648F8EE09
:10266000C00A90ED001A05F1280000EB840080EE0E
:10267000810ADFED120A20EE200ADFED110A20EEBA
:10268000200A80ED000ABDEEC00AA5F1AC0120468B
:10269000B8EEC00A00F0DCF8BDEEC00A05F13C005F
:1026A00010EE101A40F824102046BDE8704000F0EB
:1026B000BDB90000B00300203C0000200000C8426B
:1026C0000000704270B50446254850F8240000EE22
:1026D000100A2448B8EEC00A00EB840080ED000A1E
:1026E0002046FEF747F9204DA0F5004045F82400AC
:1026F0002046FEF71DF955F8240000EE100A1B488D
:10270000B8EEC01A90ED000A05F1640000EB8400F9
:10271000C1EE000A9FED160A20EE800ADFED150AD1
:1027200020EE200A80ED000ABDEEC00AA5F170017E
:102730002046B8EEC00A00F08BF8BDEEC00A05F1E5
:10274000780010EE101A40F824100B480088012879
:1027500004D12046BDE8704000F068B970BD0000AB
:10276000A802002040030020B00300203C0000200D
:102770000000C842000070429C000020704700002A
:1027800010B401EB8002D2ED000A30EEC00A82EDF7
:10279000050A10EE103A264CDFF898C0A34210D874
:1027A00010EE103A244CA3420BDC9FED240A82ED7C
:1027B000050A82ED120A82ED0A0A01230CF80030A4
:1027C00002E000230CF8003092ED120AD2ED050A67
:1027D00030EE200A82ED120A10EE100A184B9842D1
:1027E00004DD9FED180A82ED120A08E010EE100ACF
:1027F000154B984203D99FED150A82ED120A91ED0F
:102800000F0A91ED101AD2ED121A20EE200A01EEF5
:10281000210A92ED0A1AD1ED111A30EEC11A01EE19
:10282000810A82ED170AC2ED0A0A10BC7047000047
:10283000000020C1420000200000204100000000F4
:102840000000FA430000FA430000FAC30000FAC394
:1028500070B401EB8002D2ED000A30EEC00A82EDC6
:10286000050AF5EEC00A0023F1EE10FA2B4CDFF852
:10287000B0C01DD110EE105A15F1814F18D210EED4
:10288000105AB5F17E5F13DA01252554254E3CF828
:1028900010503688B5420ED99FED230A82ED050A05
:1028A00082ED120A82ED0A0A23542CF8103002E05D
:1028B00023542CF8103092ED120AD2ED050A30EEB6
:1028C000200A82ED120A10EE100A184B984204DD1D
:1028D0009FED170A82ED120A08E010EE100A154B60
:1028E000984203D99FED140A82ED120A91ED0F0A66
:1028F00091ED101AD2ED121A20EE200A01EE210AF3
:1029000092ED0A1AD1ED111A30EEC11A01EE810AC8
:1029100082ED170AC2ED0A0A70BC7047240000203D
:102920006802002040000020000000000000FA447F
:102930000000FA440000FAC40000FAC410B40020F9
:10294000DFF888C0224A9FED230A234C234B5CF812
:10295000201000EE901A02EB8001F8EEE00AC1EDC3
:10296000000A81ED170A81ED050A81ED0A0A81ED61
:10297000120A54F8201000EE901A03EB8001F8EED2
:10298000E00AC1ED000A81ED170A81ED050A81ED2B
:102990000A0A81ED120A401CC0B20528D7D3B0EE56
:1029A000080A83ED0F0ADFED0E0AC3ED100AB7EE39
:1029B000000A83ED110A9FED0B1A82ED0F1AC2ED8A
:1029C000100A82ED110A10BC70470000BC02002002
:1029D000D002002000000000A802002040030020D8
:1029E000CDCC4C3E6666663F704701EB800080EDC3
:1029F000000A704770477047B1F57A7F01D34FF4F2
:102A00007A71074A074B12689A4200DA0021064A97
:102A1000012803D0022800D19163704751637047A9
:102A20000C0000200000104100400140B1F57A7F09
:102A300002DB4FF47A7103E011F57A7F00DC234961
:102A4000234A244B12689A4200DA0021002201280E
:102A50000CD0022818D0032824D0042805D11E4BFE
:102A60001E4800292CDD1960026070471C4B0029AC
:102A700003F1040002DD1960026070471A6001DA98
:102A8000C1F1000101607047164B002903F10400F9
:102A900002DD1960026070471A6001DAC1F10001BD
:102AA0000160704710480029A0F1040302DD0160B5
:102AB0001A607047026001DAC1F1000119607047C5
:102AC0001A6001DAC1F100010160704718FCFFFFD4
:102AD0000C00002000001041344801403444014003
:102AE000340401403C04014038080040DFF814C0C1
:102AF000CCF80400CCF80810CCF80C20CCF810303E
:102B000070470000A80200201B4A52F8200000284D
:102B100001DB024600E0424200EE102AF8EEC00A55
:102B200091ED000AF4EEC00AF1EE10FA09D2002885
:102B300000DA404200EE100AB8EEC00A81ED000A49
:102B40007047002801DB024600E04242524200EE9C
:102B5000902AF8EEE00AF4EEC00AF1EE10FAEFDD8A
:102B6000002800DA4042404200EE100AB8EEC00AE7
:102B700081ED000A70470000A802002010B5FEF7A2
:102B8000FFFBBDE81040FFF771B8000030B593B00F
:102B900000252348016841F080510160006800F081
:102BA000805000901F48016841F480410160006836
:102BB00000F4804000900120069000040790022459
:102BC0000C9480010D9008200E904FF4A8700F9087
:102BD00010940720119006A8FEF704FE0F20019024
:102BE000029403954FF4A0500490E0020590052153
:102BF00001A8FEF781FCFEF777FDFEF77BFD4FF4A1
:102C00007A71B0FBF1F0FFF71DF80420FFF70AF826
:102C100000221146501EFEF729FC13B030BD000003
:102C200040380240007000400F48016841F47001D4
:102C300001600E48016841F0010101600C4A002169
:102C40001160026822F4102222F080720260031DDB
:102C5000084A1A60026822F4802202600648016075
:102C6000064958060860704788ED00E000380240C9
:102C700008380240103000240C38024008ED00E013
:102C800070B5A2B005460E460024214A106840F4F3
:102C900000301060106800F4003000901D4A106889
:102CA00040F002001060106800F0020000909015E3
:102CB0000E9002200F901190032012900EA916483A
:102CC000FEF74AFA15481390149615941695179422
:102CD00013A8FFF704F84FF480500A900AA913A82C
:102CE000FFF744F80894099408A913A8FEF7C4FF55
:102CF00060200190029403940594002201A913A876
:102D0000FFF7F7F9002113A8FFF762FA22B070BDB0
:102D10004438024030380240000402400044014080
:102D200070B5A2B005460E460024214A106840F452
:102D300080201060106800F4802000901D4A106808
:102D400040F002001060106800F002000090501582
:102D50000E9002200F901190032012900EA9164899
:102D6000FEF7FAF9154813901496159416951794D2
:102D700013A8FEF7B4FF4FF480500A900AA913A8D5
:102D8000FEF7F4FF0894099408A913A8FEF774FF4E
:102D900060200190029403940594002201A913A8D5
:102DA000FFF7A7F9002113A8FFF712FA22B070BDB0
:102DB00044380240303802400004024000480140DC
:102DC0002DE9F04190B0074688460025204801686B
:102DD00041F001010160006800F0010001904FF432
:102DE000407002900220039001260496069602A9E4
:102DF0001848FEF7B1F9184A106840F00100106059
:102E0000106800F001000190154C14482060C4F8CF
:102E10000480A560E7602561032007900895099666
:102E20000A950F200B900D960E950F9007A920463E
:102E3000FFF724F800212046FFF77EF80421204602
:102E4000FFF77AF82168F003486210B0BDE8F0811E
:102E50003038024000000240443802400000014087
:102E60003C0400202DE9F0438FB007468846002639
:102E7000294A106840F001001060106800F001005D
:102E80000090106840F002001060106800F002002E
:102E900000904FF40049CDF80490022502950124DA
:102EA0000394059401A91D48FEF756F908200190E6
:102EB00002950394059401A91948FEF74DF9194AA2
:102EC000106840F001001060106800F001000090F0
:102ED000154D10062860C5F80480AE60EF602E61C5
:102EE000032006900796089409960F200A900C94E8
:102EF0000D960E9006A92846FEF7C0FF0021284631
:102F0000FFF71AF804212846FFF716F82868C0F8DA
:102F100024900FB0BDE8F08330380240000002403A
:102F20000004024040380240780400202DE9F043BC
:102F30008FB08046894600252048016841F0020193
:102F40000160006800F0020000903020019002262D
:102F5000029601270397059601A91948FEF7FCF888
:102F6000184A106840F002001060106800F002007B
:102F70000090164C14482060C4F80490A560C4F872
:102F80000C802561032006900796089709950F206D
:102F90000A900C970D950E9006A92046FEF76EFF3D
:102FA00000212046FEF7C8FF04212046FEF7C4FF9B
:102FB0002168B00348620FB0BDE8F08330380240AA
:102FC000000402404038024000040040B4040020E5
:102FD000F0B5A3B006460F460024354A106840F00D
:102FE00004001060106800F004000090314A10687E
:102FF00040F002001060106800F0020000901068BD
:1030000040F008001060106800F008000090C02038
:103010000E9002250F95119512950EA92648FEF7E0
:103020009BF868030E900F95119512950EA92348F1
:10303000FEF792F822481390149715941696179459
:1030400013A8FEF74CFEE8020A900AA913A8FEF79F
:103050008DFE0894099408A913A8FEF70DFE6020C0
:103060000190029403940594002201A913A8FFF78C
:1030700040F8029403940594042201A913A8FFF7D1
:1030800038F8029403940594082201A913A8FFF7C5
:1030900030F8002113A8FFF79BF8042113A8FFF7CD
:1030A00097F8082113A8FFF793F823B0F0BD0000AC
:1030B000403802403038024000040240000C024018
:1030C000000800402DE9F04790B081468A4600256F
:1030D0002148016841F001010160006800F0010031
:1030E00001904FF00308CDF80880022603960127CF
:1030F0000497069602A91948FEF72EF8184A106898
:1031000040F008001060106800F008000190164CB4
:1031100014482060C4F804A0A560C4F80C90256190
:10312000CDF81C80089609970A950F200B900D97F3
:103130000E950F9007A92046FEF7A0FE002120461D
:10314000FEF7FAFE04212046FEF7F6FE2168B003E2
:10315000486210B0BDE8F0873038024000000240FD
:1031600040380240000C0040F00400200148FEF707
:1031700005BF00002C02002010B5094A074B136060
:10318000516000219160D06011611046FEF7A7FDEB
:10319000BDE810400248FEF7DDBD00000010004011
:1031A0002C02002070B5A2B005460E460024344A19
:1031B000106840F002001060106800F002000090FB
:1031C000304A106840F004001060106800F00400FD
:1031D00000904FF470700E9002200F901190032019
:1031E00012900EA92848FDF7B7FF284813901496AF
:1031F00015941695179413A8FEF771FD4FF480509F
:103200000A900AA913A8FEF7B1FD0894099408A929
:1032100013A8FEF731FD60200190029403940594F9
:10322000002201A913A8FEF764FF029403940594F9
:10323000042201A913A8FEF75CFF029403940594ED
:10324000082201A913A8FEF754FF029403940594E1
:103250000C2201A913A8FEF74CFF002113A8FEF7CA
:10326000B7FF042113A8FEF7B3FF082113A8FEF748
:10327000AFFF0C2113A8FEF7ABFF22B070BD00001A
:103280004438024030380240000802400004014047
:10329000F0B5A3B005460E460024274A106840F456
:1032A00080301060106800F480300090234A10686D
:1032B00040F010001060106800F0100000906027CF
:1032C0000E9702200F901190032012900EA91C4817
:1032D000FDF742FF1B48139014961594169517940A
:1032E00013A8FEF7FCFC4FF480500A900AA913A81B
:1032F000FEF73CFD0894099408A913A8FEF7BCFC4E
:103300000197029403940594002201A913A8FEF7E3
:10331000F0FE029403940594042201A913A8FEF779
:10332000E8FE002113A8FEF753FF042113A8FEF7BF
:103330004FFF23B0F0BD0000443802403038024057
:103340000010024000400140F0B402682B4BDFF84F
:10335000B0C02C4D2C4E2D4C98420AD0B0F1804F6D
:1033600007D0604505D0A84203D0B04201D0A042AA
:1033700003D122F070024F683A43984228D0B0F14E
:10338000804F25D0604523D0A84221D0B0421FD025
:10339000A0421DD0A0F1804CBCF5A03C18D0A0F1FB
:1033A000804CBCF5A23C13D0A0F1804CBCF5A43CF1
:1033B0000ED0A0F1804CBCF5C05C09D0A0F1804CCF
:1033C000BCF5E05C04D0A0F1804CBCF5005C05D1FC
:1033D00022F44072D1F80CC04CEA020202608A6802
:1033E000C2620A688262984201D0A04201D1096992
:1033F000016301214161F0BC704700000000014001
:103400000004004000080040000C0040000401409F
:1034100001238B40D0F820C02CEA03030362036A27
:1034200002FA01F1194301627047D0F808C02CF488
:103430007F4C42EA0322114341EA0C01816070474C
:10344000826822F07002114341F0070181607047E9
:1034500010B4026A22F001020262036A4268D0F8E4
:1034600018C02CF0700C2CF0030C0C6844EA0C0C07
:1034700023F002038C682343A0F18044B4F5803428
:1034800004D0A0F18044B4F582340DD123F00803B8
:10349000CC68234323F0040322F4807222F40072E8
:1034A0004C6922438C6922434260C0F818C04968C5
:1034B0004163036210BC704710B4026A22F010022C
:1034C0000262036A4268D0F818C02CF4E04C2CF475
:1034D000407C0C684CEA042C23F020038C6843EAFF
:1034E0000413A0F18044B4F5803404D0A0F18044EA
:1034F000B4F5823410D123F08003CC6843EA04137E
:1035000023F0400322F4806222F400624C6942EA14
:1035100084028C6942EA84024260C0F818C049689B
:103520008163036210BC704710B4026A22F4807297
:103530000262036A4268D0F81CC02CF0700C2CF0B8
:10354000030C0C6844EA0C0C23F400738C6843EA07
:103550000423A0F18044B4F5803404D0A0F1804469
:10356000B4F5823410D123F40063CC6843EA042319
:1035700023F4806322F4805222F400524C6942EA20
:1035800004128C6942EA04124260C0F81CC0496807
:10359000C163036210BC704710B4026A22F4805207
:1035A0000262D0F820C04268C36923F4E04323F4E8
:1035B00040730C6843EA04232CF4005C8C684CEAEA
:1035C000043CA0F18044B4F5803404D0A0F18044E0
:1035D000B4F5823404D122F480424C6942EA841268
:1035E0004260C36149680164C0F820C010BC7047E4
:1035F000036AD0F820C02CF0010CC0F820C0D0F82D
:1036000018C02CF0F00C4CEA021223F00A03194304
:10361000826101627047036A23F010030362D0F8ED
:1036200018C0036A2CF4704C4CEA023223F0A00359
:1036300043EA0111826101627047000038B5002140
:103640000E4A136843F004031360126802F0040288
:1036500000920C4C0A4A22606060A160E160216126
:103660000C206061A161E1612046FEF768FE2068E0
:10367000C16841F02001C16038BD0000303802400F
:10368000004C0040C000002010B4184B18680168BE
:10369000DFF85CC011F0200F6FF0100416D0416805
:1036A000CAB2BCF8021029B904601868C36843F0B4
:1036B0001003C360642906D20E484254481CACF87B
:1036C000020010BC704710BC00F016B8016811F081
:1036D000100FF6D004601868C16821F01001C160B5
:1036E00001208CF8000010BC70470000C0000020D2
:1036F00008000020000100200020054A002111548C
:10370000401C80B26428FAD3024841807047000010
:10371000000100200800002010B504462046FCF7F8
:103720004FFD82B22146BDE810404FF47A73014844
:10373000FEF76EBEC00000202DE9F041044620686F
:10374000016921F44051E268114301612068C168B8
:1037500021F4037121F414412369A268D4F81CC038
:103760001A43636943EA0C031A431143C16020689A
:10377000416921F44071A26911434161E069BC4A89
:10378000BC49BD4D3226B0F5004F5ED0206888425E
:1037900002D0904240F01281FDF7C8FF00EBC0015B
:1037A00001EB001061688900B0FBF1F7FDF7BEFF87
:1037B00000EBC00101EB001061688900B0FBF1F083
:1037C000A5FB001040096FF01801484307EB80008B
:1037D00006EB0010A5FB0010400900F0F007FDF714
:1037E000A5FF00EBC00101EB001061688900B0FB90
:1037F000F1F0A5FB0010400907EB0017FDF796FF5D
:1038000000EBC00101EB001061688900B0FBF1F82A
:10381000FDF78CFF00EBC00101EB0010616889002F
:10382000B0FBF1F0A5FB001040096FF01801484310
:1038300008EB800006EB0010A5FB00102168C0F328
:10384000431038448860BDE8F0812068884201D088
:10385000904259D1FDF76AFF00EBC00101EB001067
:1038600061684900B0FBF1F0A5FB001040090701B9
:10387000FDF75CFF00EBC00101EB0010616849003F
:10388000B0FBF1F8FDF752FF00EBC00101EB0010B7
:1038900061684900B0FBF1F0A5FB001040096FF032
:1038A0001801484308EB800006EBC000A5FB0010A0
:1038B000400900F0F80007EB4007FDF737FF00EB89
:1038C000C00101EB001061684900B0FBF1F8FDF7A1
:1038D0002DFF00EBC00101EB001061684900B0FB57
:1038E000F1F0A5FB001040096FF01801484308EB08
:1038F000800006EBC000A5FB00102168C0F3421059
:1039000038448860BDE8F081FDF7FAFE00EBC001A5
:1039100001EB001061684900B0FBF1F0A5FB00105D
:1039200040090701FDF7ECFE00EBC00101EB0010C0
:1039300061684900B0FBF1F8FDF7E2FE00EBC00161
:1039400001EB001061684900B0FBF1F0A5FB00102D
:1039500040096FF01801484308EB800006EBC000F7
:10396000A5FB0010400900F0F80007EB4007FDF749
:10397000C7FE00EBC00101EB001061684900B0FB1D
:10398000F1F8FDF7BDFE00EBC00101EB001061682E
:103990004900B0FBF1F0A5FB001040096FF01801E1
:1039A000484308EB800006EBC000A5FB001021682F
:1039B000C0F3421038448860BDE8F081FDF7A0FEF6
:1039C00000EBC00101EB001061688900B0FBF1F76A
:1039D000FDF796FE00EBC00101EB00106168890065
:1039E000B0FBF1F0A5FB001040096FF0180148434F
:1039F00007EB800006EB0010A5FB0010400900F06B
:103A0000F007FDF77DFE00EBC00101EB00106168DF
:103A10008900B0FBF1F0A5FB0010400907EB00178F
:103A2000FDF76EFE00EBC00101EB0010616889003C
:103A3000B0FBF1F8FDF764FE00EBC00101EB0010F4
:103A400061688900B0FBF1F0A5FB001040096FF040
:103A50001801484308EB800006EB0010A5FB00109E
:103A60002168C0F3431038448860BDE8F08100004D
:103A700000140140001001401F85EB512DE9F04179
:103A80000446069D884617461E462068006838EAA8
:103A9000000020D00020B84227D1B5F1FF3F1CD054
:103AA00025B1FDF767FC801BA84216D92068C168C4
:103AB00021F4D071C1602068416921F001014161A8
:103AC000202084F8390084F83A00002084F8380077
:103AD0000320BDE8F0810120DDE72068006838EAB6
:103AE000000005D00020B842D7D00020BDE8F0810A
:103AF0000120F8E7FEE70000014A024900F013B890
:103B0000493B0008BC00002002E008C8121F08C1A1
:103B1000002AFAD170477047002001E001C1121F4E
:103B2000002AFBD170472DE9F04116460F460446A6
:103B3000002503E03946B047641C6D1C207800283E
:103B4000F8D12846BDE8F08113B54FF47A7301220D
:103B500069460348FEF75CFC009802B010BD000007
:103B6000C0000020FDF714FCFFF710F86420FDF7FB
:103B7000E4FAFEF7C7FCFCF7D9FDA72140F2E730D5
:103B8000FFF710FBA72140F2E730FFF721FAA7214A
:103B900040F2E730FFF774F8A72140F2E730FFF773
:103BA000BFF8532140F2E730FFF772FB00214FF6D8
:103BB000FE70FFF705F900214FF6FE70FFF752F98E
:103BC00000214FF6FE70FFF7B1F900214FF6FE70AD
:103BD000FFF778FA42F2CF016320FFF7CDFAFEF744
:103BE000ADFE00231A4619461846FEF77FFF15481A
:103BF000012505704FF4E130FFF720FD124CC4F8A9
:103C000090526420FDF799FA0026C4F890620020D3
:103C1000FCF70AFE00210120FEF7EEFE0021022043
:103C2000FEF7EAFE09A0FFF777FDC4F8A8524FF4AB
:103C30007A70FDF782FAC4F8A8624FF47A70FDF743
:103C40007CFAEFE7480000200000424248454C4C17
:103C50004F000000000610160006101600000000BD
:103C6000000000000102030406070809000000002C
:103C700001020304943C000800000020C000000082
:103C8000083B0008543D0008C000002070140000EC
:103C9000183B0008000000000024F40000000000B1
:103CA0000000000001000000000000000000000013
:103CB0000000000000000000000000000000000004
:103CC00000000000000000000000000000000000F4
:103CD000000020441400000000000000000000006C
:103CE0000000F401F401FFFFC80000000000000024
:103CF0000000000066660640000020410000004011
:103D0000000020410000803F0000704200000000E1
:103D100000000000000000000000000000000000A3
:103D20000000000000000000000000000000000093
:103D30000100000000000000000000000000000082
:103D40000000000000000000000000000000000073
:043D5000000000006F
:040000050800018965
:00000001FF
